:020000040000FA
:10000000F8050020650100006D0100006F0100008F
:1000100000000000000000000000000000000000E0
:10002000000000000000000000000000710100005E
:1000300000000000000000007301000075010000D6
:1000400077010000770100007701000077010000D0
:1000500077010000770100007701000077010000C0
:1000600077010000770100007701000077010000B0
:10007000A5040000F9040000290500007701000034
:100080007701000077010000770100007701000090
:1000900077010000770100000502000077010000F1
:1000A0007701000077010000770100007701000070
:1000B0007701000077010000770100007701000060
:1000C00000F002F800F03EF80CA030C80838241800
:1000D0002D18A246671EAB4654465D46AC4201D180
:1000E00000F030F87E460F3E0FCCB6460126334274
:1000F00000D0FB1AA246AB4633431847A0060000C7
:10010000C0060000103A02D378C878C1FAD8520766
:1001100001D330C830C101D504680C6070470000BD
:100120000023002400250026103A01D378C1FBD813
:10013000520700D330C100D50B6070471FB51FBDFB
:1001400010B510BD00F033F81146FFF7F7FF00F0CF
:1001500091FA00F04BF803B4FFF7F2FF03BC00F094
:100160004BF800000748804707480047FEE7FEE7D6
:10017000FEE7FEE7FEE7FEE704480549054A064BB1
:100180007047000011040000C1000000F8F0FF1FDC
:10019000F8050020F8F5FF1FF8F5FF1F70477047BE
:1001A000704700000048704794F0FF1F7047754685
:1001B000FFF7F8FFAE46050069465346C008C00089
:1001C000854618B020B5FFF7D7FF60BC0027490867
:1001D000B6460026C0C5C0C5C0C5C0C5C0C5C0C5DF
:1001E000C0C5C0C5403D49008D4670470446C04665
:1001F000C0462046FFF7AFFF01491820ABBEFEE71F
:100200002600020010B572B60A48C068002805D062
:1002100001210848C1600849086880470548C0694D
:10022000002805D001210348C1610349486880477F
:1002300062B610BD0071034000F0FF1F30B50246EA
:10024000242A04D100235A4C23605A4C2360584B73
:100250001C681B685B1C564D2B60574B185D904209
:1002600001D03F2800D130BD1346303BD9B26428BD
:1002700007D1504B1B680A2463435B184D4C236025
:100280008CE0652807D14D4B1B680A2463435B183B
:100290004A4C236082E0612807D1484B1B68062442
:1002A00063435B18454C236078E074280AD1414BC6
:1002B0001B680A2463435B18414C236000233D4CB8
:1002C00023606BE06D280AD13A4B1B680A24634314
:1002D0005B183C4C23600023384C23605EE06C28A4
:1002E0000FD14E2A04D1354B1B68374C236004E0F4
:1002F000324B1B685B42344C236000232F4C23603D
:100300004CE06F280FD1452A04D12C4B1B682F4C91
:10031000236004E0294B1B685B422C4C23600023C4
:10032000244C23603AE06A280ED12E2A36D0214B85
:100330001B680A2463435B181E4C23601C4B1B681C
:100340005B1E1B4C236029E06B280AD1194B1B68EC
:100350000A2463435B181E4C23600023154C236062
:100360001CE063280AD1134B1B680A2463435B1803
:10037000184C236000230F4C23600FE079280AD12A
:100380000C4B1B680A2463435B18134C2360012346
:10039000124C237002E00023054C2360104BDB68F5
:1003A0000124E40223430E4CE36000BF5BE700003E
:1003B00068F0FF1F6CF0FF1F1FF0FF1F70F0FF1FA2
:1003C00074F0FF1F78F0FF1F88F0FF1F8CF0FF1FF5
:1003D0007CF0FF1F80F0FF1F84F0FF1F90F0FF1FD5
:1003E00080F00F4070470000000000000000000097
:1003F00000000000000000000000000000000000FD
:10040000FFFFFFFFFFFFFFFFFFFFFFFFFEFFFFFFFD
:10041000002020490860A0201F49087014201F49AF
:1004200048709A20087000BF1C48817902208843D8
:100430000028F9D100BF1948807910210840002810
:10044000F9D100BF154881790A2088430028F9D1E5
:100450000320124908714020487100BF0F4881797C
:10046000202088430028F9D100BF0C488179402022
:1004700088430028F9D110200849087000BF0748B8
:1004800081790C2088430028F9D101200004044917
:10049000486070470070044000500640004006402D
:1004A0004080044010B572B6114804798020204085
:1004B000002810D00F49486800F07EF80C49C87138
:1004C0000C4840680069002805DC0846C078802197
:1004D00088430749C87020202040002805D0044ADE
:1004E000D179044A106800F080F862B610BD0000AF
:1004F00000A0064008F0FF1F10B572B60948047945
:1005000080202040002802D020200649C8712020E9
:100510002040002803D00349C879FFF78FFE62B658
:1005200010BD000000B0064010B572B61148047945
:1005300080202040002810D00F49486800F03CF887
:100540000C49C8710C4840680069002805DC084661
:10055000C078802188430749C870202020400028A7
:1005600005D0044AD179044A106800F03EF862B61A
:1005700010BD000000C0064010F0FF1F0C49896B41
:10058000012211430A4A916300210A4A116011466F
:100590008860052151600121116000BF054909688B
:1005A000802211400029F9D00021024A11607047D1
:1005B000008004400000044001460869002801D181
:1005C000FF2070474B688868C25CC868401E4B6853
:1005D000834202D10020486002E04868401C486025
:1005E0000869401E08611046EBE70246D3681069AF
:1005F000984212DA13689068C154D068401E13689C
:10060000834202D10020106002E01068401C10609C
:100610001069401C1061002070470020C043FBE7B8
:100620001048406B0121C90208430E49486300206D
:100630000D4908709C2048702C20C8700948806BB8
:10064000C914084307498863032000020749C860AA
:1006500008610D2001218140054A116000BF62B68A
:10066000704700000080044000B0064000B0044025
:1006700000E100E00024FFF7B5FE4548806B012152
:10068000C9020843424988630846806B0121490337
:1006900008433F498863FF2041303E4908623E4895
:1006A0004069891508433C49486108464069491535
:1006B0000843394948613648806B0121C902084323
:1006C00033498863344840690F210902084332499D
:1006D000486188152F49086248628862C8622E48BE
:1006E0004068C91408432C494860FFF799FF00BFD0
:1006F0006420FFF743FF08202040002807D0264849
:100700004068FF21013108432349486006E0224840
:100710008068FF21013108431F4988600420204080
:10072000002807D01C48C0680121490208431A4923
:10073000C86006E01848806801214902084316494C
:10074000886002202040002807D01348C06801219B
:10075000890208431049C86006E00F48406801213B
:10076000890208430C494860E007C00F002807D001
:100770000948C0680121C90208430749C860B7E7B2
:10078000054840680121C902084303494860AFE7B2
:100790000080044000B0044080F00F40BC0700001F
:1007A00000F0FF1F9400000004010000500800004A
:1007B00094F0FF1F641500002001000000000000FD
:1007C0000000000000000000000000000000000029
:1007D0000000000000000000000000244750524DBF
:1007E000432C6464647464642E64646D2C412C65D1
:1007F0006561652E656565652C6C2C656565616553
:100800002E656565652C6F2C646A646B2C6464646A
:100810002E64632C646464793F3F2C2C2C3F2A3F68
:100820003F00000000000000000000000000000089
:1008300000000000000000000000000000000000B8
:1008400000000000000000000000000000000000A8
:04000005000000C136
:00000001FF
