:020000040000FA
:10000000500800206D01000075010000770100001C
:1000100000000000000000000000000000000000E0
:100020000000000000000000000000007901000056
:1000300000000000000000007B0100007D010000C6
:100040007F0100007F0100007F0100007F010000B0
:100050007F0100007F0100007F0100007F010000A0
:100060007F0100007F0100007F0100007F01000090
:100070001D08000071080000A90800007F010000B1
:100080007F0100007F0100007F0100007F01000070
:100090007F0100007F010000A90500007F01000032
:1000A0007F0100007F0100007F0100007F01000050
:1000B0007F0100007F0100007F0100007F01000040
:1000C00000F002F800F042F80CA030C808382418FC
:1000D0002D18A246671EAB4654465D46AC4201D180
:1000E00000F034F87E460F3E0FCCB6460126334270
:1000F00000D0FB1AA246AB46334318474025000008
:1001000060250000103A02D378C878C1FAD85207A7
:1001100001D330C830C101D504680C6070470000BD
:100120000023002400250026103A01D378C1FBD813
:10013000520700D330C100D50B6070471FB500983F
:10014000019900F07CF91FBD10B510BD00F0BEF99B
:100150001146FFF7F3FF01F08DFE00F044F903B400
:10016000FFF7F2FF03BC00F0F9F9000007488047F1
:1001700007480047FEE7FEE7FEE7FEE7FEE7FEE78B
:1001800004480549054A064B7047000089070000EE
:10019000C100000050F3FF1F5008002050F8FF1F5F
:1001A00050F8FF1F70B5064600F004F905683046A8
:1001B0000B30C408E400B44201D8002070BD686868
:1001C0002A46002818D00168A14211D30B462146C7
:1001D00008318B4208D3436801194B6003681B1B2D
:1001E0000B605160046001E041685160001D70BD0A
:1001F000024640680028E6D12146284600F00AF968
:100200000028DCD170BD70B50446051F00F0D2F89F
:100210000068002C1AD0446801E020466468002C75
:1002200001D0AC42F9D301680A18AA4204D12A6865
:1002300005468918016000E0456028684119A1421F
:1002400005D16168696021684018286070BD6C60E4
:1002500070BD002203098B422CD3030A8B4211D3B9
:1002600000239C464EE003460B433CD40022430847
:100270008B4231D303098B421CD3030A8B4201D337
:1002800094463FE0C3098B4201D3CB01C01A5241CF
:1002900083098B4201D38B01C01A524143098B421F
:1002A00001D34B01C01A524103098B4201D30B0108
:1002B000C01A5241C3088B4201D3CB00C01A52412D
:1002C00083088B4201D38B00C01A524143088B42F2
:1002D00001D34B00C01A5241411A00D2014652418B
:1002E000104670475DE0CA0F00D04942031000D3AA
:1002F0004042534000229C4603098B422DD3030AFF
:100300008B4212D3FC22890112BA030A8B420CD30E
:10031000890192118B4208D3890192118B4204D337
:1003200089013AD0921100E08909C3098B4201D3B7
:10033000CB01C01A524183098B4201D38B01C01AF1
:10034000524143098B4201D34B01C01A5241030968
:100350008B4201D30B01C01A5241C3088B4201D317
:10036000CB00C01A524183088B4201D38B00C01AC4
:100370005241D9D243088B4201D34B00C01A52419B
:10038000411A00D20146634652415B10104601D328
:100390004042002B00D54942704763465B1000D3B2
:1003A000404201B50020C046C04602BD70477047BC
:1003B0007047000000487047F8F2FF1F7047704711
:1003C000002101604160806070471020704700008C
:1003D00000487047F0F2FF1F10B500F097F800F0EA
:1003E00008F810BD70470446C046C0462046FFF7D7
:1003F000B6FE10B5002801D000F0B0F810BD70476F
:10040000FFFFFFFFFFFFFFFFFFFFFFFFFEFFFFFFFD
:100410007047704738B504460A4600206946C04612
:10042000C046002805D002462046009900F034F866
:10043000012038BD10B50120FFF7CEFF10BDF8B583
:10044000C046C046054600200C461020C046064661
:10045000A819A0420DD9324669460020C046C046C0
:10046000070001D1FFF7B8FF0098A04200D0054671
:10047000C419FFF79FFFF61D07460560F008C0008E
:1004800046192846FFF79CFFB44204D0314638682D
:10049000A21B00F001F8F8BD10B50346406801E06A
:1004A00003464068002801D08842F9D31868C31871
:1004B0008B4206D0CB1CD808C000001D411A521A2E
:1004C0000146081D0A60FFF79EFE10BD7546FFF746
:1004D0007FFFAE46050069465346C008C00085460A
:1004E00018B020B5FFF74CFE60BC00274908B6469F
:1004F0000026C0C5C0C5C0C5C0C5C0C5C0C5C0C533
:10050000C0C5403D49008D467047000010B5012828
:1005100005D0002103A000F027F8012010BD09A19B
:10052000F8E7000053494752544D454D3A204F7566
:1005300074206F662068656170206D656D6F7279DB
:10054000000000003A2048656170206D656D6F7293
:100550007920636F727275707465640001491820A8
:10056000ABBEFEE72600020070B505460C460A2029
:1005700000E06D1C00F012F8002D06D0287800284D
:10058000F7D102E0641C00F009F8002C02D02078BA
:100590000028F7D10A2000F001F870BD08B56946BF
:1005A00008700320ABBE08BD10B572B60A48C0681B
:1005B000002805D001210848C16008490868804723
:1005C0000548C069002805D001210348C1610349DD
:1005D0004868804762B610BD0071034000F0FF1FFD
:1005E00030B50246242A04D100235A4C23605A4CC9
:1005F0002360584B1C681B685B1C564D2B60574B87
:10060000185D904201D03F2800D130BD1346303BE9
:10061000D9B2642807D1504B1B680A2463435B1886
:100620004D4C23608CE0652807D14D4B1B680A2494
:1006300063435B184A4C236082E0612807D1484B32
:100640001B68062463435B18454C236078E07428DC
:100650000AD1414B1B680A2463435B18414C236059
:1006600000233D4C23606BE06D280AD13A4B1B6898
:100670000A2463435B183C4C23600023384C2360FE
:100680005EE06C280FD14E2A04D1354B1B68374CE5
:10069000236004E0324B1B685B42344C2360002330
:1006A0002F4C23604CE06F280FD1452A04D12C4BEE
:1006B0001B682F4C236004E0294B1B685B422C4CC9
:1006C00023600023244C23603AE06A280ED12E2AAE
:1006D00036D0214B1B680A2463435B181E4C2360F1
:1006E0001C4B1B685B1E1B4C236029E06B280AD146
:1006F000194B1B680A2463435B181E4C23600023BC
:10070000154C23601CE063280AD1134B1B680A2494
:1007100063435B18184C236000230F4C23600FE0E9
:1007200079280AD10C4B1B680A2463435B18134CCD
:1007300023600123124C237002E00023054C236048
:10074000104BDB680124E40223430E4CE36000BF3E
:100750005BE7000068F0FF1F6CF0FF1F1FF0FF1F3A
:1007600070F0FF1F74F0FF1F78F0FF1F88F0FF1F6D
:100770008CF0FF1F7CF0FF1F80F0FF1F84F0FF1F35
:1007800090F0FF1F80F00F40002020490860A0205B
:100790001F49087014201F4948709A20087000BF34
:1007A0001C488179022088430028F9D100BF1948EC
:1007B0008079102108400028F9D100BF15488179BF
:1007C0000A2088430028F9D10320124908714020EB
:1007D000487100BF0F488179202088430028F9D153
:1007E00000BF0C488179402088430028F9D11020AF
:1007F0000849087000BF074881790C208843002809
:10080000F9D1012000040449486070470070044099
:1008100000500640004006404080044010B572B6CB
:100820001148047980202040002810D00F494868E2
:1008300000F0EAF90C49C8710C48406800690028CA
:1008400005DC0846C078802188430749C87020200D
:100850002040002805D0044AD179044A106800F0ED
:100860002FFD62B610BD000000A0064008F0FF1F7B
:1008700010B572B60B48047980202040002802D0C1
:1008800020200849C87120202040002807D00548B2
:10089000C4792046FFF7A4FE204601F0FDFD62B6B4
:1008A00010BD000000B0064010B572B611480479C2
:1008B00080202040002810D00F49486800F0A4F99B
:1008C0000C49C8710C4840680069002805DC0846DE
:1008D000C078802188430749C87020202040002824
:1008E00005D0044AD179044A106800F0E9FC62B6E8
:1008F00010BD000000C0064010F0FF1F70B5044698
:100900000D4600202071401EE0622946204601F07D
:100910005DFB002801D0032070BD20463030FF3041
:10092000FF304078010220463030FF30E130807FD8
:1009300001431848814201D00220EDE76920005DA3
:1009400001066820005D000408436721095D090273
:1009500008436621095D08430002000A0E498842E7
:1009600001D10020D8E78520005D01068420005DCC
:10097000000408438321095D090208438221095DBF
:1009800008430002000A0449884201D10020C3E75D
:100990000120C1E755AA000046415400024600E08C
:1009A000521C1078002802D010788842F8D11078B4
:1009B00070470246891E5069801E884201D8002077
:1009C000704790784843936AC018F9E7F3B581B04F
:1009D00004460298002807D1E768002F02D060691A
:1009E000B84215D8012713E02046029901F018F902
:1009F0000646022E01D20120FEBD701C002801D146
:100A00003046F9E76069B04201D93046F4E7029F09
:100A10003D4600BF6D1C6069A84204D80225BD4256
:100A200001D90020E8E72946204601F0F9F80646FA
:100A3000002E00D10AE0701C002801D0012E01D147
:100A40003046D9E7BD42E5D10020D5E700BF154AC1
:100A50002946204601F0D5FA00900098002808D1D8
:100A60000298002805D02A462046029901F0C9FACA
:100A70000090009800280CD1E5602069401C0028F7
:100A80000ED02069401E2061607901210843607109
:100A900006E00098012801D1801E00E001200546F3
:100AA0002846A9E7FFFFFF0FF3B583B00498076856
:100AB00000E07F1C38782F28FBD038785C28F8D0ED
:100AC000039886690B222021304601F075FA002533
:100AD000009501950820029000BF0198411C0191EA
:100AE0003C5C202C03DD2F2C01D05C2C00D139E0A4
:100AF0002E2C03D00299009888420ED30298082821
:100B000001D12E2C02D0062005B0F0BD08200090A7
:100B10000B200290A806050EDFE7802C05DB0320E2
:100B200005432046803824490C5C214623A0FFF76A
:100B300035FF002801D00620E6E7412C04DB5A2CC3
:100B400002DC0220054308E0612C06DB7A2C04DC81
:100B50000120054320462038C4B20098411C009172
:100B60003454BAE700BF0198391804980160202C6A
:100B700001DC042000E0002004460098002801D198
:100B80000620C1E73078E52801D1052030700298B1
:100B9000082801D1A806050EA807800F012801D159
:100BA000102004430C202840042801D108200443CD
:100BB000F4720020A8E70000BC250000222A2B2C9C
:100BC0003A3B3C3D3E3F5B5D7C7F00000C49896BBE
:100BD000012211430A4A916300210A4A1160114619
:100BE0008860052151600121116000BF0549096835
:100BF000802211400029F9D00021024A116070477B
:100C0000008004400000044001460869002801D12A
:100C10000220704788684B68C25C4B68C868401EF9
:100C2000834202D10020486002E04868401C4860CE
:100C30000869401E08611046EBE7000008B5064849
:100C4000406801218904084303494860012168463E
:100C500001F0A4FA08BD000040F00F40F8B50446CA
:100C60000E460021204600F004F90546002D1FD154
:100C7000002700BF2169206801F0A8F90546002D72
:100C800000D014E060690078E52803D0606900783E
:100C9000002804D1781C0746B04201D107E00027A4
:100CA0000121204600F03AF80546002DE2D000BFB1
:100CB000042D00D107252846F8BDF8B504460021CB
:100CC000204600F0D6F80546002D01D02846F8BD94
:100CD00000BF2169206801F079F90546002D00D098
:100CE00019E066693778002F01D1042513E0F07A06
:100CF00008210840002807D10B223046A16901F0E5
:100D000039F9002800D106E00021204600F006F85D
:100D10000546002DDDD000BF2846D8E7F3B581B0E9
:100D20000446E088461CB0B2002802D020690028A2
:100D300001D10420FEBD3007000F002871D12069C9
:100D4000401C2061E068002805D120680089B0427D
:100D500067D80420EEE7300921688978491E0840E9
:100D600000285ED1E168206800F05AFF0546012D99
:100D700001D80220DEE7681C002801D10120D9E754
:100D800020684069A84246D80298002801D1042072
:100D9000D0E7E1682068FFF719FE0546002D01D174
:100DA0000720C7E7012D01D10220C3E7681C0028F6
:100DB00001D10120BEE7206801F044FB002801D0EA
:100DC0000120B7E721680846303001225202002195
:100DD00001F0F2F829462068FFF7EBFD2168C862B0
:100DE00000270FE0012021680871206801F02AFB2C
:100DF000002801D001209DE72068C06A401C2168BE
:100E0000C8627F1C20688078B842EBD82068C06A2E
:100E1000C01B2168C862E56029462068FFF7C9FD4C
:100E20002061E680206830303107C90D40186061CC
:100E300000207FE770B5044601212046FFF70EFF32
:100E40000546002D13D12169206801F0BFF8054641
:100E5000002D0CD120220021606901F0ADF80B2299
:100E6000A169606901F09BF801202168087128469A
:100E700070BDF8B504460E46E680A568012D03D086
:100E800020684069A84201D80220F8BD002D05D194
:100E900020680078032801D12068456A002D08D118
:100EA00020680089B04201D80220EEE72068476A36
:100EB00020E0206880780001009013E02946206837
:100EC00000F0AEFE0546681C002801D10120DCE7D9
:100ED000022D03D320684069A84201D80220D4E73C
:100EE0000098361A00988642E8D229462068FFF713
:100EF00060FD0746E560002F01D10220C5E73009FB
:100F0000C0192061206830303107C90D4018606178
:100F10000020BAE7F1B582B00298002801D0032082
:100F2000FEBD6420FFF752FE5548406B0121890544
:100F30000843534948630846806B032189020843EC
:100F40004F4988634F4840690121890408434D494E
:100F5000486148154C4948618861C86140104B4957
:100F6000886054204A49C8700020887048704548FD
:100F70004068012189040843424948600A2505E088
:100F8000012101A801F00AF9681EC5B2002DF7D1B0
:100F900000260021084601F065F9012861D1FF21F2
:100FA000AB31082001F05EF9012834D1042101A8F9
:100FB00001F0F4F868468079012852D16846C0797A
:100FC000AA284ED17D24E4000BE001218907A92045
:100FD00001F048F9002800D105E06420FFF7F6FD94
:100FE000641E002CF1D100BF002C3AD000213A2021
:100FF00001F038F9002834D1042101A801F0CEF81D
:101000006846007940210840002801D00C2000E00B
:101010000420064625E00021A92001F023F901283B
:1010200002DC0226A92701E0012601277D24E40035
:101030000AE00021384601F015F9002800D105E04A
:101040006420FFF7C3FD641E002CF2D100BF002C0A
:1010500006D001214902102001F004F9002800D037
:1010600000260C480670002E01D1012000E000206F
:101070000090094900980870FFF7E0FD00984FE7DD
:101080000080044040F00F4000B0044040A0044005
:10109000006007409BF0FF1F9AF0FF1FF7B586B076
:1010A0000E461446069800F0ABF8C007C00F0028A3
:1010B00002D0032009B0F0BD01200590002E04D01D
:1010C000012E09D0032E50D14AE001F0B3F80028D8
:1010D00001D0002005904BE00021092001F0C2F86A
:1010E00000283CD1102101A801F031F8002836D0A9
:1010F00068460079801101280DD16846417B007B4C
:10110000000209186846C07A8006800A0818451C43
:10111000A802206021E06846407A0107090F68466E
:10112000807B80221040C01109186846407B8007F0
:10113000400F0818871C6846007B81116846C07AFA
:10114000800009186846807A8007000D0818451C41
:10115000384609382946814021600020059007E083
:10116000802020600020059002E00420059000BF50
:1011700000BFFFF763FD05989CE70000FFB581B055
:101180000D4616461C46019800F03AF8C007C00FFD
:10119000002802D0032005B0F0BD184800780821CF
:1011A0000840002800D17602012C01D9122000E06D
:1011B000112007463146384601F054F8002815D171
:1011C00000BF01214902284600F0C1FF002800D1DC
:1011D00005E0FF35FF350235601E0400F1D100BF88
:1011E000122F03D100210C2001F03CF8FFF726FD5F
:1011F000002C01D00120CEE70020CCE79BF0FF1FA0
:101200000146002901D00120704701480078FBE722
:101210009AF0FF1FF8B507460D4616461C4638469D
:10122000FFF7EEFFC007C00F002801D00320F8BD74
:101230002248007808210840002800D17602012CBD
:101240000DD13146182001F00DF800282DD1FE21D6
:10125000284601F07BF9002827D0002425E0174814
:10126000007806210840002803D02146972000F08E
:10127000F9FF3146192000F0F5FF002815D100BF15
:10128000FC21284601F062F9002800D105E0FF3575
:10129000FF350235601E0400F2D100BFFD210020A1
:1012A00001F054F9002800D10124FFF7C7FC002CFD
:1012B00001D00120BBE70020B9E700009BF0FF1F31
:1012C00002461069D368984212DA90681368C154D4
:1012D0001368D068401E834202D10020106002E0F3
:1012E0001068401C10601069401C1061002070479D
:1012F0000020C043FBE770B50546284600F0FCF827
:101300000446002C06D1284601F0E4F80446002CDF
:1013100000D12860204670BDF7B582B0164603980C
:10132000019001A800F0FAFC0546002D02DA0B201E
:1013300005B0F0BDA8000F490C58002C01D00020CA
:1013400020700298002802D0002002990870A9009D
:10135000084A029850500298002801D0012E01D06E
:101360000020E5E7002203A902A800F0F3F90746F0
:101370003846DDE794F0FF1FF7B58CB005461646FA
:10138000002D02D109200FB0F0BD00202860F60624
:10139000F60E720852000DA905A800F0DBF9074609
:1013A000002F70D102A80B9005A80D9900F0ECFB5E
:1013B00007460A9C002F02D1002C00D106271C20D2
:1013C0003040002856D0002F09D0042F03D105A8A3
:1013D000FFF730FD0746082006430A9C0BE0E07A41
:1013E00011210840002801D0072704E004203040E4
:1013F000002800D00827002F50D1082030400028B6
:101400004CD03C4801900198A07301980004010E53
:10141000E17301980002010E21740198010E6174BC
:101420000020E072207700216177A177E1772146E3
:10143000059800F00DFD00900021204600F063FFAC
:101440000120059908710098002827D00598C06AE6
:1014500001900099059800F0B5FE0746002F1DD1B8
:101460000098401E0599C8600199059800F0AEFDEE
:10147000074613E0002F11D1E07A10210840002820
:1014800002D004270AE032E002203040002805D0D4
:10149000E07AC007C00F002800D00727002F09D12D
:1014A00008203040002801D0202006430598C06A5B
:1014B000E8612C62002F1AD1AE710020E87121463C
:1014C000059800F0C5FC2861E07F0006A17F0904B3
:1014D0000843617F09020843217F0843E860002038
:1014E000A860A861059828602868C088A880384648
:1014F00049E7000000004146F8B50446204600F0E8
:10150000E9FF0746002F3AD1A079202108400028A2
:1015100035D0E169206800F059FD0746002F2ED133
:10152000256AE87A20210843E872207B2877A08981
:101530000004010E6977E0680002010EA977E068F7
:10154000010EE9772846216900F0DDFE0D4EAE75EB
:101550003004010EE9753002010E2976310E6976EC
:101560000020A8740021E974A07920218843A0718B
:10157000012021680871206800F0CFFE0746384638
:10158000F8BD000000004146FFB587B0044615468F
:101590000898039000210A980160204600F09AFF05
:1015A00006900698002802D006980BB0F0BDE079AE
:1015B000002801D0E079F8E7A0790221084000284E
:1015C00001D10720F1E7A0684019A168884200D244
:1015D0000025AEE02089C005C00D00287DD1A0689F
:1015E000400A21688978491E0840C0B202900298DA
:1015F000002823D1A068002808D12669002E0AD12E
:1016000000212068FFF7E2F9064604E061692068DE
:10161000FFF7DCF90646002E00D18DE0012E02D145
:101620000220E071C1E7701C002802D10120E071A6
:10163000BBE766612069002800D126612068C06A86
:10164000A169884207D1206800F0FCFE002802D082
:101650000120E071A9E761692068FFF7AAF9059008
:101660000598002802D10220E0719EE702990598B2
:1016700040180590680A0490049800281BD004992B
:101680000298401821688978884204D920688178B6
:101690000298081A0490206840780190049B059AEB
:1016A0000399FFF7B7FD002802D00120E0717CE725
:1016B0000498470231E0E168A06888420BD32068B3
:1016C00000F0C0FE002803D00120E0716DE704E0C7
:1016D00005982168C8620598A0612089C005C00DE1
:1016E000012149020F1AAF4200D92F46A169206893
:1016F00000F06CFC002802D00120E07155E7216861
:1017000030312289D205D20D88183A46039900F06B
:1017100046FC01202168087100BF0398C01903909E
:10172000A068C019A0600A980068C1190A980160F1
:10173000ED1B002D00D04DE700BFE168A068884296
:1017400001D9A068E060A07920210843A0710020A1
:101750002BE70000F7B58EB000210E9801600F98BE
:1017600000F0DCFA0C900C98002802DA0B2011B083
:10177000F0BD0C988000FD490C58002C01D10C20C4
:10178000F5E70E9804602078002814D06078FFF701
:1017900037FD0B900B98C007C00F00280BD1109895
:1017A000002806D004210B980840002801D00A2008
:1017B000DDE70020DBE7002020700C986070607887
:1017C000FFF7A8FB0B900B98C007C00F002801D0B3
:1017D0000320CCE71098002806D004210B9808407D
:1017E000002801D00A20C2E7002739462046FFF72B
:1017F00085F80546012D02D0002D39D138E00026AC
:101800001DE031012046FF30EF3008180D900D9893
:10181000007900280ED00D98C07A01060D98807AC4
:10182000000408430D99497A090208430D99097A81
:10183000084300E00020B10002AA5050761C042E9C
:10184000DFD30026002E00D0761E00BFB00002A914
:101850000F58002F04D039462046FFF74FF800E01C
:1018600002200546002D03D0701C06460428EDD347
:10187000032D01D101207AE7002D01D00D2076E75C
:101880003C20005D00023B21095D08430121490223
:10189000884201D00D206AE74720005D0002462102
:1018A000095D08430A900A9800280ED15720005D70
:1018B00001065620005D000408435521095D090218
:1018C00008435421095D08430A900A98A06140200A
:1018D000005DE070E078012804D0E078022801D0B3
:1018E0000D2044E7E0780A9948430A903D20005DC6
:1018F000A070A078002804D0A078411E08400028DD
:1019000001D00D2033E74220005D00024121095D36
:1019100008432081207A0007000F002801D00D2005
:1019200025E74420005D00024321095D084309903A
:10193000099800280ED15320005D01065220005D59
:10194000000408435121095D090208435021095D43
:10195000084309903F20005D00023E21095D0843D5
:1019600001900198002801D10D2000E70A99019803
:10197000401821890909401808900999089881425E
:1019800001D20D20F3E6A178089B099AD01AFEF740
:1019900060FC07900798002801D10D20E7E601259B
:1019A00073490798884200D30225724907988842F4
:1019B00000D303250798801C6061E76101983818FF
:1019C000206208983818A062032D17D120890028BA
:1019D00001D00D20CBE65F20005D01065E20005D9A
:1019E000000408435D21095D090208435C21095D8B
:1019F0000843606260698000069016E02089002834
:101A000001D10D20B3E6216A0A9808186062022D00
:101A100002D16069400007E0606941004018400859
:101A2000217DC907C90F40180690A1690698FF30AB
:101A3000FF300130400A814201D20D2097E600209C
:101A4000C0432061E06080206071032D7ED1612061
:101A5000005D01026020005D014301297BD1791CFA
:101A6000204600F0B3FA002875D16071204630306E
:101A7000FF30FF304078010220463030FF30E13047
:101A8000807F01433C48814265D13320005D0006E0
:101A90003221095D090408433121095D0902084327
:101AA0003021095D08433549884254D12046303001
:101AB000FF30E530C078010620463030FF30E53099
:101AC00080780004084321463031FF31E531497800
:101AD0000902084321463031FF31E13109790843D9
:101AE0002749884237D120463030FF30E930C0786E
:101AF000010620463030FF30E9308078000408438A
:101B000021463031FF31E931497809020843214645
:101B10003031FF31E131097A08432061204630300D
:101B2000FF30ED30C078010620463030FF30ED3018
:101B300080780004084321463031FF31ED31497887
:101B40000902084321463031FF3100E003E0E13172
:101B5000097B0843E06025700A480088401C80B279
:101B600008490880E080002001E6000094F0FF1F93
:101B7000F60F0000F6FF000055AA00005252614126
:101B80007272416198F0FF1FF3B581B0044602986C
:101B900000782F2803D0029800785C2802D10298A0
:101BA000401C02900020A06002980078202807D2F4
:101BB00000212046FFF75DF90546002060612DE019
:101BC00000BF02A92046FEF76FFF0546002D00D09A
:101BD00023E02046FFF771F80546A069C77A002D7B
:101BE00008D0042D05D100BF04203840002800D1C2
:101BF000052512E004203840002800D00DE0666979
:101C0000F07A10210840002801D1052505E0314671
:101C1000206800F01DF9A060D3E700BF2846FEBD94
:101C2000FEB504460D46022D02D36069A84202D8D3
:101C30000120009070E00020C0430090207801282F
:101C400004D0022834D0032862D145E02F4678081A
:101C5000C7197A0A206A8118204600F0B7F90028CF
:101C600000D058E038467F1CC105C90D20463030F1
:101C7000405C01907A0A206A8118204600F0A6F99B
:101C8000002800D047E0F905C90D20463030405CFF
:101C90000002019908430190E807C00F002802D014
:101CA0000198000902E001980005000D009032E063
:101CB0002A0A206A8118204600F088F9002800D0FE
:101CC00029E02806C10D204630300E187078000239
:101CD0003178084300901EE0EA09206A8118204606
:101CE00000F074F9002800D015E06806C10D204608
:101CF00030300E18F0780006B17809040843717886
:101D0000090208433178084300010009009002E00D
:101D10000120009000BF00BF0098FEBD70B50246D4
:101D20000020C0431568002D1CD0116800E0491C3C
:101D30000D78212D02D30D783A2DF8D10D783A2D5A
:101D40000FD114682578641C2B46303B0A2B07D230
:101D50008C4205D1002B03D118464D1C2946156035
:101D600070BD002000BFFBE770B505461420FEF7EC
:101D700019FA04462846FEF715FAA060E56000202F
:101D8000606020602061204670BD00001048406BFC
:101D90000121C90208430E49486300200D4908701B
:101DA0009C2048702C20C8700948806BC9140843D7
:101DB00007498863032000020749C86008610D20B5
:101DC00001218140054A116000BF62B670470000E2
:101DD0000080044000B0064000B0044000E100E094
:101DE00010B51648406B01210903084313494863A5
:101DF0000020134908709C2048702C20C870502087
:101E0000FFF7B2FF0F4908605020FFF7ADFF0D4903
:101E100048600A48806B0121090308430749886329
:101E20000320000208498860C8600E20012181401B
:101E3000064A116000BF62B610BD00000080044079
:101E400000C0064010F0FF1F00C0044000E100E0A9
:101E500010B50246CB7E1B028C7E234318461378B6
:101E6000032B05D14B7D1B020C7D23431B04184320
:101E700010BD000008B500BFFEF7C1FA3148806B05
:101E80000121C90208432F4988630846806B01215C
:101E9000490308432B498863FF2041302A490862DF
:101EA0002A4840698915084328494861084640691D
:101EB00049150843254948612248806B0121C90220
:101EC000084320498863214840690F2109020843DB
:101ED0001E49486188151C49086248628862C862C8
:101EE0001A484068C914084318494860FFF74EFF74
:101EF000FFF776FF24E0002215A11648FFF70CFA41
:101F00000A2215A11748FFF737FA002811D10F4808
:101F10004068FF21013108430C4948606B460B22A1
:101F200011A11048FFF730FB0E48FFF7E4F900BF9E
:101F3000FEE70648406801218902084303494860DA
:101F4000D9E700000080044000B0044080F00F405A
:101F5000000000009CF0FF1F6E657766696C652EBF
:101F600074787400CCF2FF1F497420776F726B7322
:101F7000210D0A00F8B503461C460D4600200090CE
:101F800000BF1046521E002807D02078641C2E780F
:101F90006D1C801B00900028F3D00098F8BD70B530
:101FA00003460C4603E025781D70641C5B1C154637
:101FB000521E002DF7D170BD30B5034601E01970F7
:101FC0005B1C1446521E002CF9D130BD70B504467E
:101FD0000D460026E06AA84211D0204600F032FAF1
:101FE0000646002E0BD1607801232A462146303167
:101FF000FFF7C4F8002801D0751E0126E5623046BF
:1020000070BDFEB505460E461746022E02D368691E
:10201000B04202D80220009097E02878012804D02E
:1020200002284CD003287ED160E00196019E700802
:10203000801901902A6A0198400A11182846FFF772
:10204000C5FF00900098002800D07DE00198411C59
:102050000191C105C90D284630300C18F007C00F9A
:10206000002805D020780007000F3901084300E060
:1020700038462070012028712A6A0198400A1118F8
:102080002846FFF7A3FF00900098002800D05BE0EF
:102090000198C105C90D284630300C18F007C00F53
:1020A000002802D03805000E05E02078F021084015
:1020B0003905090F084320700120287144E0320AD5
:1020C000286A81182846FFF781FF009000980028B1
:1020D00000D039E03006C10D284630300C1827708A
:1020E0003804000E6070012028712DE0F209286A82
:1020F00081182846FFF76AFF00900098002800D05A
:1021000022E07006C10D284630300C18E078000639
:10211000A17809040843617809020843217808433B
:10212000000F000700E00CE0074327703804000EA2
:1021300060703802000EA070380EE0700120287127
:1021400002E00220009000BF00BF0098FEBDF8B57D
:1021500005460E467D24E4000CE00121684600F0AF
:102160001DF868460078FF2800D005E00A20FEF739
:102170002DFD641E002CF0D100BF68460078FE28BB
:1021800001D00020F8BD3146284600F007F80221B2
:10219000684600F003F80120F4E700000022084B35
:1021A0009A7100BF00BF064A12780022002AFAD1B5
:1021B000034A92790270401C4A1E1100F2D1704706
:1021C00000600740F8B504460E46022E02D360694F
:1021D000B04201D802272BE0002725E031462046F7
:1021E000FFF71EFD0546002D00D120E0012D01D195
:1021F00002271CE0681C002801D1012717E00022FB
:1022000031462046FFF7FDFE0746002F00D00EE0C6
:102210002069401C002806D02069401C206160799C
:102220000121084360712E466069B042D6D800BFD4
:102230003846F8BD08B50A4880680121890408437A
:102240000749886001216846FFF7A8FF00F062F99E
:10225000002801D0012008BDFEF7F0FC0020FAE7BD
:1022600040F00F40FEB504460D4680202040002877
:102270000AD06406640E00213720FFF7F3FF0646FC
:10228000012E01DD3046FEBD0C2C07D0FEF7D6FC3A
:10229000FFF7D0FF002801D1FF20F4E740202043C2
:1022A00069460870290E684641702802010E68468A
:1022B00081702804010E6846C17005710126002C4A
:1022C00000D19526082C00D1872668464671062144
:1022D00000F062F90C2C03D1012102A8FFF75EFF88
:1022E0000A2600BF012102A8FFF758FF6846007ABE
:1022F00080210840002803D0701EC0B20600F1D132
:102300006846007ABFE781760A04130EC3760A0294
:10231000120E02750B0E4375704770B504462046C9
:1023200000F090F80546002D7CD1207803287FD15D
:10233000607901287CD14202002120463030FFF72D
:102340003BFE552120463030FF30E1308177AA2115
:1023500020463030FF30FF3041705221302001558F
:102360003120015561213220015541213320015591
:10237000722120463030FF30E1300171204630308C
:10238000FF30E5304170412120463030FF30E530EC
:102390008170612120463030FF30E530C170217CF2
:1023A00020463030FF30E1300172208A0004010EF7
:1023B00020463030FF30E930417020690002010EC4
:1023C00020463030FF30E93081702069010E204610
:1023D0003030FF30E930C170217B20463030FF3093
:1023E000E1300173A0890004010E20463030FF3037
:1023F000ED304170E0680002010E20463030FF30C1
:10240000ED308170E068010E20463030FF30ED3055
:10241000C170E069401CE0626078012321463031E0
:10242000E26A01E00CE003E0FEF7F4FE00206071D8
:10243000607800221146FEF731FE002800D0012509
:10244000284670BDF8B5044600272079002820D022
:10245000E56A607801232A4621463031FEF7DAFE2C
:10246000002801D0012714E000202071206A281ADA
:10247000A16988420DD2E67809E0A0694519607823
:1024800001232A4621463031FEF7C4FE761E022E75
:10249000F3D23846F8BD000010B5044600BF0B4823
:1024A0004068006909494968C9688842F7D072B62E
:1024B000064948682146FEF703FF62B60448C07823
:1024C000802108430249C87010BD000010F0FF1FB2
:1024D00000C0064070B505462C46002C0BD0206885
:1024E000002808D020680078002804D02068C08820
:1024F000A188884201D0092070BD21684878FEF784
:102500007FFEC007C00F002801D00320F4E70020A1
:10251000F2E7000038B50C4C0CE001216846FFF7EB
:102520003DFE68460078FF2800D105E00A20FEF74E
:102530004DFB641E002CF0D100BF002C01D0012007
:1025400038BD0020FCE700008813000038B50546C0
:102550000C46FFF7DFFF002800D138BD6846047045
:10256000012100F019F8FD2C14D001214902284660
:1025700000F012F802216846FFF710FE01216846BC
:10258000FFF70CFE68460078C006C00E052801D093
:102590000020E2E70120E0E700BF0278401C00BF16
:1025A000054B1B780023002BFAD1034B9A714B1E6D
:1025B0001900F2D17047000000600740809A9041F6
:1025C0008E418F804545454949498E8F9092924F63
:1025D000994F555559999A9B9C9D9E9F41494F559E
:1025E000A5A5A6A7A8A9AAABAC21AEAFB0B1B2B3BE
:1025F000B4B5B6B7B8B9BABBBCBDBEBFC0C1C2C323
:10260000C4C5C6C7C8C9CACBCCCDCECFD0D1D2D312
:10261000D4D5D6D7D8D9DADBDCDDDEDFE0E1E2E302
:10262000E4E5E6E7E8E9EAEBECEDEEEFF0F1F2F3F2
:10263000F4F5F6F7F8F9FAFBFCFDFEFF5C26000066
:1026400000F0FF1F9C00000004010000F8260000BD
:102650009CF0FF1FB41700002001000000000000E4
:10266000000000000000000000000000000000006A
:102670000000000000000000000000244750524D00
:10268000432C6464647464642E64646D2C412C6512
:102690006561652E656565652C6C2C656565616594
:1026A0002E656565652C6F2C646A646B2C646464AC
:1026B0002E64632C646464793F3F2C2C2C3F2A3FAA
:1026C0003F000000000000000000000000000000CB
:1026D00000000000000000000000000000000000FA
:1026E00000000000000000000000000000000000EA
:0826F0000000000000000100E1
:04000005000000C136
:00000001FF
