S31500000000000C0020B5040000AD060000B506000097
S31500000010B5060000B5060000B5060000B5060000EE
S31500000020B5060000B5060000B5060000B5060000DE
S31500000030B5060000B5060000B5060000B5060000CE
S31500000040B5060000B5060000B5060000B5060000BE
S31500000050B5060000B5060000B5060000B5060000AE
S31500000060B5060000B5060000B5060000B50600009E
S31500000070B5060000B5060000B5060000B50600008E
S31500000080B5060000B5060000B5060000B50600007E
S31500000090B5060000B5060000B5060000B50600006E
S315000000A0B5060000B5060000B5060000B50600005E
S315000000B00D090000B5060000B5060000B5060000F3
S31500000400FFFFFFFFFFFFFFFFFFFFFFFF7EFFFFFF77
S3150000041000F002F800F03EF80CA030C808382418A6
S315000004202D18A246671EAB4654465D46AC4201D126
S3150000043000F030F87E460F3E0FCCB646012633421A
S3150000044000D0FB1AA246AB4633431847B00A000059
S31500000450D00A0000103A02D378C878C1FAD85207F9
S3150000046001D330C830C101D504680C607047000064
S315000004700023002400250026103A01D378C1FBD8BA
S31500000480520700D330C100D50B6070471FB51FBDA2
S3150000049010B510BD03488546FFF7F8FF00F008FCCD
S315000004A000F0C8F8000C002003B4FFF7F1FF03BC0E
S315000004B000F0C6F80148804701480047B50900002A
S315000004C011040000002000BF00BF00BF00BF00BF36
S315000004D0401C0928F7D900BF7047002203098B4248
S315000004E02CD3030A8B4211D300239C464EE00346CD
S315000004F00B433CD4002243088B4231D303098B4281
S315000005001CD3030A8B4201D394463FE0C3098B42B6
S3150000051001D3CB01C01A524183098B4201D38B010F
S31500000520C01A524143098B4201D34B01C01A5241B2
S3150000053003098B4201D30B01C01A5241C3088B42F7
S3150000054001D3CB00C01A524183088B4201D38B00E2
S31500000550C01A524143088B4201D34B00C01A524184
S31500000560411A00D201465241104670475DE0CA0F5B
S3150000057000D04942031000D34042534000229C461B
S3150000058003098B422DD3030A8B4212D3FC22890125
S3150000059012BA030A8B420CD3890192118B4208D3FB
S315000005A0890192118B4204D389013AD0921100E05D
S315000005B08909C3098B4201D3CB01C01A5241830971
S315000005C08B4201D38B01C01A524143098B4201D39E
S315000005D04B01C01A524103098B4201D30B01C01AC9
S315000005E05241C3088B4201D3CB00C01A5241830843
S315000005F08B4201D38B00C01A5241D9D243088B4299
S3150000060001D34B00C01A5241411A00D2014663463B
S3150000061052415B10104601D34042002B00D549429F
S31500000620704763465B1000D3404201B50020C046C8
S31500000630C04602BD0446C046C0462046FFF734FF0A
S3150000064001491820ABBEFEE72600020070470000F5
S3150000065001460D4801600D4A5269FF2301331A43D2
S315000006600A4B5A611A4612689B151A43074B1A60C1
S31500000670074A126A074B1A40FF2301331A43044BF9
S315000006801A62054A1060704708FCFF1F40F00F40D1
S3150000069000A00440FFF9FFFE2CFCFF1FFF210131E3
S315000006A0014A51607047000040F00FF810B500F0A5
S315000006B002F810BD704770470146134800220260D9
S315000006C04160124AD26B0123DB071A430F4BDA63F0
S315000006D00F4A52785206520E0D4B5A700D4A526806
S315000006E00D4B1A400B4B5A600022094B203B5A70A7
S315000006F01A700F22064BDA7000229A701A70802246
S315000007005A70064A506070470CFCFF1F0080044078
S3150000071020F0034000A00440FFF8FFFE2CFCFF1F62
S315000007200246064B197018464078F02318400B0411
S315000007301B0E1843014B58700020704700F0034011
S3150000074010B52A4840692A4908400321090208438E
S315000007502649486127484079E021084025494871E3
S3150000076008460079F8210840224908712248007895
S31500000770DC210840502108431F490870084640788C
S31500000780DC210840402108431B4948700846807810
S31500000790E621084018498870002018490870184852
S315000007A04068134908400321090208431449486078
S315000007B014480321090240184068FF2109048843B0
S315000007C0104903221202891848600020FFF740FFF3
S315000007D00D490868FFF762FF0020FFF76DFF002054
S315000007E000F026F800BF62B600BF10BD00A00440AE
S315000007F0FFFBFFFE00F0074000D0074000E0074087
S315000008000090044000E100E02CFCFF1F10B50446F8
S3150000081000F01EFA10BD70B504462546287900285A
S3150000082004D101202871286800F01AF8002070BD54
S3150000083070B50546084CA560002020710748C460C5
S31500000840002000F019F820602068002802D1034932
S31500000850C86070BD2046FCE73CFCFF1F2CFCFF1F58
S3150000086001460448006881229043401C014A1060FA
S31500000870002070470000044010B501461D4A9268EA
S31500000880002A04D11C4841600122027006E0194A80
S31500000890906841600278521C027010BD174A1060C1
S315000008A0174A926B01231A43154B9A638022154B04
S315000008B01A601A229A6004225A60134A03231B0202
S315000008C0D218D269D209D20180231A430E4B0324CF
S315000008D024021B19DA610C4A126801231B071A430A
S315000008E0094B1A604022074B1A60024A906000BF0B
S315000008F0D3E700002CFCFF1F14FCFF1F1CFCFF1F8E
S31500000900008004400000044000E100E010B5064805
S315000009100468064800688021084304490860606846
S3150000092000F006F810BD00001CFCFF1F000004408C
S3150000093070B505460248C468A068FFF767FF70BD3A
S315000009402CFCFF1F00BF00BF00BF704710B5044658
S3150000095004E0FFF7B7FD2046643884B2642CF8DC67
S3150000096004E0FFF7EFFF20460A3884B20A2CF8DCD1
S3150000097010BD000010B5044604E00648FFF7E6FF88
S315000009800448241A03488442F7D8A0B2FFF7DEFFD2
S3150000099010BD000060EA000070B50446044D04E096
S315000009A02846FFF7E7FF601E84B2002CF8DC70BD16
S315000009B0EB51000029482A4988600020294908602F
S315000009C0032000042749C03948602748806B03216B
S315000009D049020843244988630846806B012108437D
S315000009E0214988632148807808210840002804D0DE
S315000009F01E48807808431D49887000201A494031F6
S31500000A0048601B48006803218904084318490860A8
S31500000A101548406801214906884349100843124990
S31500000A204860062013490870002048700846C078C0
S31500000A30C006C00EC87080200F49087000BF0D4860
S31500000A408079102108400028F9D000BF0948807934
S31500000A500C2108400028F9D1704700000000000072
S31500000A6000ED00E0008104400080044000D0074013
S31500000A70007004400040064000500640FEB50546A2
S31500000A800E4617460720684908706848056068489A
S31500000A906849086000246000674A115E3846FFF71F
S31500000AA03FFE029000F0CAF8B5E06000624A115EAF
S31500000AB03846FFF735FE02905E4909681422514315
S31500000AC008467D21C900FFF708FD002803D05948D4
S31500000AD00068002800D162E07D21C9005548006801
S31500000AE0FFF705FD14214843002807D07D21C900E2
S31500000AF050480068FFF7FBFC002800D11CE07D2170
S31500000B00C9004C480068FFF7F2FC7D21C90001903E
S31500000B10FFF7EDFC002800D10EE07D21C900454815
S31500000B200068FFF7E4FC7D21C9000090FFF7DFFCB9
S31500000B3080B20190FFF730FF7D21C9003D48006873
S31500000B40FFF7D5FC7D21C9000190FFF7D0FC1420EA
S31500000B504143002900D122E07D21C90035480068C3
S31500000B60FFF7C5FC7D21C9000190FFF7C0FC1420EA
S31500000B7041430A2902D8FFF7E5FE10E07D21C900AE
S31500000B802C480068FFF7B3FC7D21C9000090FFF7F1
S31500000B90AEFC1420414388B20190FFF7D7FE7D21B9
S31500000BA0C90024480068FFF7A2FC142041430191C4
S31500000BB07D21C9000198FFF790FC002800D124E0B0
S31500000BC07D21C9001B480068FFF791FC14204143B2
S31500000BD001917D21C9000198FFF77FFC0A2802D800
S31500000BE0FFF7B0FE11E07D21C90012480068FFF74B
S31500000BF07EFC1420414300917D21C9000098FFF737
S31500000C006CFC80B20190FFF7A1FE641CFF2001304E
S31500000C10844200DD0024A85D0449096809788842F9
S31500000C2000DD42E70020FEBD20FCFF1F24FCFF1F65
S31500000C30B70C000028FCFF1FFC0C000010B5034990
S31500000C40C868FFF7E8FD012010BD00002CFCFF1F5F
S31500000C5000211248027880201041114A1268127849
S31500000C60104000280BD10F4800680F4A904203D16C
S31500000C700E480C4A106002E00B480A4A106007480A
S31500000C800078002807D10720044A1070044800683D
S31500000C90401C034A106000207047000020FCFF1F24
S31500000CA024FCFF1F28FCFF1FB70C0000EF06000006
S31500000CB01CB50EA103C901910090FFF741FD6D46D9
S31500000CC00C48052142682846FFF7D8FE0020FFF7AA
S31500000CD0F3FC0949086000BF002404E07D20000100
S31500000CE0FFF734FE641C0A2CF6D2F7E76162317412
S31500000CF06A0000002CFCFF1F04FCFF1FFF073108E1
S31500000D0063089608C808FA082B095D098E09C00908
S31500000D10F009210A510A810AB10AE00A0E0B3D0BBD
S31500000D206A0B970BC40BF00B1B0C460C700C9A0C41
S31500000D30C20CEA0C120D380D5E0D820DA60DCA0D01
S31500000D40EC0D0D0E2D0E4D0E6B0E890EA50EC00E62
S31500000D50DB0EF40E0C0F230F390F4E0F620F750FBB
S31500000D60860F970FA60FB40FC10FCC0FD70FE00F4A
S31500000D70E80FEF0FF40FF80FFC0FFD0FFE0FFD0F3E
S31500000D80FC0FF80FF40FEF0FE80FE00FD70FCC0FA3
S31500000D90C10FB40FA60F970F860F750F620F4E0F78
S31500000DA0390F230F0C0FF40EDB0EC00EA50E890EA5
S31500000DB06B0E4D0E2D0E0D0EEC0DCA0DA60D820DF1
S31500000DC05E0D380D120DEA0CC20C9A0C700C460C16
S31500000DD01B0CF00BC40B970B6A0B3D0B0E0BE00ABA
S31500000DE0B10A810A510A210AF009C0098E095D0972
S31500000DF02B09FA08C808960863083108FF07CD07CB
S31500000E009B07680736070407D306A10670063E0649
S31500000E100E06DD05AD057D054D051E05F004C10474
S31500000E20940467043A040E04E303B8038E036403D0
S31500000E303C031403EC02C602A0027C0258023402F0
S31500000E401202F101D101B1019301750159013E016F
S31500000E5023010A01F200DB00C500B0009C008900F6
S31500000E607800670058004A003D00320027001E0047
S31500000E7016000F000A000600020001000000010033
S31500000E80020006000A000F0016001E0027003200AE
S31500000E903D004A0058006700780089009C00B000B9
S31500000EA0C500DB00F2000A0123013E01590175016C
S31500000EB09301B101D101F1011202340258027C0200
S31500000EC0A002C602EC0214033C0364038E03B803BB
S31500000ED0E3030E043A0467049404C104F0041E05F7
S31500000EE04D057D05AD05DD050E063E067006A1061F
S31500000EF0D3060407360768079B07CD071C0F0000BB
S31500000F0000FCFF1F2C00000054040000480F0000E6
S31500000F102CFCFF1F1C0000007004000000000000F5
S31500000F2000000000000000000000000000000000BB
S31500000F3000000000000000000000000000000000AB
S30D00000F400000000000000000A3
S70500000411E5
