S01700006275696C642F61707273446F6E676C652E7331398F
S1130000003000207D0400008D0400008D040000F9
S113001000000000000000000000000000000000DC
S11300200000000000000000000000008D0400003B
S113003000000000000000008D0400008D0400009A
S11300408D0400008D0400008D0400008D04000068
S11300508D0400008D0400008D0400008D04000058
S11300608D0400008D0400008D0400008D04000048
S1130070490B0000C10B0000090C00008D040000B6
S11300808D0400008D0400008D0400008D04000028
S11300908D0400008D0400009D0900008D04000003
S11300A08D0400008D0400008D0400008D04000008
S11300B08D0400008D0400008D0400008D040000F8
S1130400FFFFFFFFFFFFFFFFFFFFFFFFFEFFFFFFF9
S1130410144B002B00D1124B9D46402292029A1A93
S1130420924600218B460F461148124A121A00F0D8
S113043076FF0D4B002B00D098470C4B002B00D0BF
S113044098470020002104000D000B4800F0F2FE44
S113045000F022FF2000290000F084FC00F0F2FEEE
S11304600000080000300020000000000000000030
S113047050F1FF1FF0F4FF1F7112000072B600F07C
S11304803BF800F04BF862B6FFF7C2FF00480047A4
S11304908D040000074B10B51A781C00002A07D100
S11304A0054B002B02D0054800E000BF0123237058
S11304B010BDC04650F1FF1F00000000B41700003B
S11304C0084B10B5002B03D00749084800E000BFD3
S11304D007480368002B03D0064B002B00D0984735
S11304E010BDC0460000000054F1FF1FB417000007
S11304F04CF1FF1F000000000821064B9A780A42C5
S113050002D09A780A439A7088230021024A5B0138
S1130510D150704700D0074000700440154B164876
S113052010B5191E81420CD00023144A920892007F
S11305309A4203D0C458CC500433F9E7104B996065
S113054001E00F4A936000230E4A0F490F48891AAD
S11305508B4203D0D45CC4540133F9E70023180060
S11305600B4A0C49891A994203D0D41820700133DC
S1130570F9E710BD000000000000000000000000CA
S113058000ED00E0DC1700002C19000000F0FF1F54
S113059050F1FF1FF0F4FF1FC26D836D9A4211DA10
S11305A00368C31819720268836D013B9A4201D132
S11305B0002301E0036801330360C36D0133C365A5
S11305C0002001E0012040427047C26D0300022078
S11305D0002A10D05A689A18107A59689A6DC0B2D5
S11305E0013A914201D1002201E05A6801325A6075
S11305F0DA6D013ADA6570475023836500231900E8
S113060043600360C365C218013311724F2BFAD1E2
S11306105020704710B50B4B1B78002B11D00A4C9F
S113062023685A1C2260094A5B00985A00F0D8FDDE
S113063023683F2B01DD00232360054B1A68054B1B
S11306405A6010BD11F2FF1F0CF2FF1F00F0FF1FD4
S113065014F2FF1FFC70034010B5034B03481968E4
S113066000F044F910BDC04614F2FF1F1506000047
S113067010B50249024800F05FF910BD204E000099
S11306804507000010B500F07DF900F081F9034939
S1130690034A044B885803408B5010BD007004403B
S11306A03C100000FFFF7FFF0022154B70B519605E
S11306B00721144B144D1860144B154C1A60154B3C
S11306C0154E1970154B77311A7001232B80217048
S11306D0134933700A70134A1370AA22124B1A601A
S11306E000F05CFDFFF7B8FFFFF7C2FF3378002B83
S11306F0FCD12B881B0A2370FFF7C4FF70BDC046D2
S113070024F2FF1F1CF2FF1F0AF2FF1F0CF2FF1F4F
S113071010F2FF1F09F2FF1F11F2FF1F18F2FF1F53
S113072008F2FF1F20F2FF1F14F2FF1F9B22044B4D
S113073052001968914200D18C3A1A607047C04641
S113074014F2FF1FF7B5274B1A780193002A47D0FC
S11307508023254C254D2278297852B213411A0062
S11307604BB2134014D0224B1B78002B14D0214BD6
S11307701F78FFB2002F0FD11F4E33780133DBB245
S113078033703378052B07D9FFF7D0FF377003E0B8
S1130790194A1370FFF7CAFF23785BB2002B1BDCE6
S11307A0164A174813680168013B13600B7801313E
S11307B0DBB2DBB201600F492B700B78DBB2002B8C
S11307C004D11268002A05DC019A02E00023084AD9
S11307D00B701370072302E02378013BDBB2237014
S11307E0F7BDC04611F2FF1F09F2FF1F10F2FF1FF1
S11307F018F2FF1F20F2FF1F08F2FF1F24F2FF1F51
S11308001CF2FF1F10B5074C23685A1C2260064ACD
S11308105B00985A00F0E4FC2368402B01DD0023C0
S1130820236010BD28F2FF1F00F0FF1F002370B5E6
S1130830094C050009490A48236000F057F8642070
S1130840002D01D19620400000F06CFC00F09AF8D5
S11308500023236070BDC04628F2FF1F7102000010
S113086005080000F0B580261D4C85B07600009088
S11308700391A66000F092FC009D0196009B039AF0
S11308809B189D4229D22B781A00413AD1B21929DA
S113089001D8144B05E0303BDAB20027092A01D80D
S11308A0114AD75C03267B0903330293029B9E42C1
S11308B00DD080203041019B38406360FFF7B6FFC4
S11308C0019B6420A36000F02DFC0136EEE7962026
S11308D04000013500F026FCD0E705B0F0BDC0466D
S11308E080F00F40501600006A16000010B58024F6
S11308F00C4B0D4A18600D4824048358234383503D
S113090000220B4B1A60FC33596001210232196139
S1130910DA60DA680A43DA608022064BD2031A608E
S113092062B610BD2CF2FF1F3C10000000700440A2
S11309300070034000E100E010B580240C4B0D4A28
S113094058600D48240483582343835000220B4BE2
S11309501A60FC335961012102321962DA61DA69E1
S11309600A43DA618022064BD2031A6062B610BDD4
S11309702CF2FF1F3C100000007004400070034084
S113098000E100E00022014BDA607047FC70034094
S11309900022014BDA617047FC70034010B572B657
S11309A0094C2369002B04D001232361074B1B68E6
S11309B09847236A002B05D00122034B1A62034B8C
S11309C05B68984762B610BDFC7003402CF2FF1FB1
S11309D084B003930023029217930093019304B00D
S11309E0704700002E4B10B5041E9C4223D180207A
S11309F02C4B2D49C0005A5802435A502B4A2C49BB
S1130A0098580140995099582A4801438020995098
S1130A10294980005A5802435A502848284A294BE9
S1130A205A609A600300C0331C60FFF7E5FD264856
S1130A30FFF7E2FD2CE0254B984213D18020194B9F
S1130A40194A00019958014399501B495A580243C5
S1130A505A50C0221E4B9200DA601E4BC0331C60F9
S1130A60242316E01C4B984219D180200D4B0E4ACA
S1130A7040019958014399500F495A5802435A501A
S1130A80C022164B92009A60DA60154BC0331C608A
S1130A902C23E370002323709C33637062B610BD73
S1130AA000A0064000700440341000000410000050
S1130AB0FFFFFEF3000001043810000034F2FF1FB2
S1130AC0000200010090044094F2FF1F00B00640B1
S1130AD000B00440F8F2FF1F00C0064000C004400C
S1130AE0BCF3FF1F84B002927F22039331AB0191C8
S1130AF01978309B0090D8780240DA701A7952B293
S1130B00002AFBDAD97104B0704784B010B5AEB0D6
S1130B10619C309031913292339323780134002BCD
S1130B200CD034A9B42268462D9300F0EFFB309822
S1130B303199329A339BFFF7D5FFEEE72EB010BC04
S1130B4008BC04B018470000802370B5184D5B0042
S1130B506B6072B6174C23795BB2002B0FDA8023DB
S1130B609B006B601448FFF730FD144BE071BC33FD
S1130B701B68002B03DC7F23E2781340E3708021A1
S1130B802279C9000B4B696092060ED52A20D979C7
S1130B901A79C9B202431A718022054B12015A60B4
S1130BA0002902D00548FFF7F7FC62B670BDC046C5
S1130BB080F00F4000A0064094F2FF1F34F2FF1FA4
S1130BC070B572B60D4C2579EDB26BB2002B0CDA10
S1130BD00B48FFF7FAFC0B4BE071BC331B68012B8D
S1130BE003DC7F23E2781340E370AB0603D5E0799E
S1130BF0C0B200F0EDF962B670BDC04600B0064068
S1130C0058F3FF1FF8F2FF1F70B572B60D4C25792B
S1130C10EDB26BB2002B0CDA0B48FFF7D6FC0B4B92
S1130C20E071BC331B68022B03DC7F23E2781340A2
S1130C30E370AB0604D5E1790448C9B2FFF7ACFC14
S1130C4062B670BD00C006401CF4FF1FBCF3FF1F5A
S1130C500023A0211B4A30B513601B4B02201970DE
S1130C601A4B8C39597086311970110004009A7925
S1130C709443221EFAD1103298791042FCD10A24EE
S1130C8025009879114A8543281EF9D10330107143
S1130C903D305071203804009A799443FBD14020B0
S1130CA004009A799443FBD11020084A1070043848
S1130CB004009A799443FBD18022054B5202CA5016
S1130CC030BDC0460070044000500640004006405D
S1130CD044100000F8B58823002280251B4C5B01DA
S1130CE0E250FFF7B5FF8021194A2D01A35889016D
S1130CF02B43A350A35880200B43A350A023802749
S1130D0014495B000B62144B40005E69BF0006434C
S1130D105E615E693E435E61A6582E43A650F02490
S1130D205A69240122435A61086248628862C8628F
S1130D305D6000F03FF900F0E7F99621074889016A
S1130D40FFF750FE064800F009FAF8BD00700440B1
S1130D503810000000B0044080F00F4000B006409E
S1130D600060064010B5FFF7B5FF00F037F800F05B
S1130D700BF900F087F800F0D3F8114800F0D2F92D
S1130D8000F010F9FA20C00000F0CCF900F0EEF801
S1130D90FA20400000F0C6F905210A48FFF762FD79
S1130DA0642000F0BFF900F025FAC82000F0BAF979
S1130DB000F0EAF8C82000F0B5F900F0F9F8DCE733
S1130DC010270000741600000023CA5CC2540133CB
S1130DD05A1E8A5C002AF8D11800704770B51C4C62
S1130DE01C482100FFF7F0FF21001B48FFF7ECFF30
S1130DF096211A488901FFF7F5FD98201849194AE8
S1130E0080018B58184C03438B506369174A08259B
S1130E10134363618023164A5B00D360D364154A8D
S1130E2064201365144A154B51690B4080215361AA
S1130E30134B49035A690A435A6180221203A26080
S1130E405960A56000F06EF96560002070BDC04671
S1130E507A16000080F4FF1F8BF4FF1F00A00640E9
S1130E60007004403810000040F00F4008000800F3
S1130E7000A0044000D0044000F00F40FFEFFFFF4B
S1130E8000F10F40F0B58023802580208021F022DE
S1130E9005261F4CDB002D01800049001201B1B072
S1130EA0A560A360A060A160A260656063606060EB
S1130EB06160A2602F93013E002E26D00A2000F02C
S1130EC031F9144DB4222F0010373900684600F070
S1130ED01DFA28686968AA68EB68FFF779FD0E4B6C
S1130EE0B422390068462D9300F010FA2868696826
S1130EF0AA68EB68FFF709FE642000F013F90122E9
S1130F002F9B6360054B5A77D5E7012031B0F0BDC4
S1130F1080F00F4034F2FF1F8316000080F4FF1F9F
S1130F2030B50F4BAFB05B7F0120002B16D00D4CBA
S1130F300D4B2100B422103168462D9300F0E6F9E0
S1130F4020686168A268E368FFF7DFFD013564206B
S1130F5000F0E8F86B1E032BE9DD00202FB030BD54
S1130F6080F4FF1F34F2FF1F951600008022044B0B
S1130F7052039A608022034B12015A607047C046A4
S1130F8000F10F4080F00F408022044B52035A605E
S1130F908022034B12019A607047C04600F10F4053
S1130FA080F00F400822014B5A60704740F00F4018
S1130FB0704700000020034B1860034B1860034B7C
S1130FC018607047A8F4FF1FA4F4FF1FE8F4FF1F84
S1130FD0F0B53D4A13681400062B19DC3B49C95C83
S1130FE0814203D000233A4A236002E0062B02D058
S1130FF00133136066E02C295BD1072313600023BF
S1131000334A34491360344A1160344A137059E046
S11310102C284ED12D4A591C515C15002C29E1D1A4
S1131020023323602D4B2A4A19782B48002903D018
S1131030002106681768F155002111602268AA5C36
S1131040632A24D00CD8452A27D003D8412A2CD18E
S1131050234A19E04F2A16D0612A26D1214A19E0E1
S11310606F2A0ED005D8642A13D06B2A1DD11E4ACC
S113107010E0732A03D0742A17D1164A0AE01B4AD7
S113108002E01B4A06E01B4A026019701AE01A4A81
S113109000E01A4A0260012209E021600121184A95
S11310A011608021174AC9005160002202601A7041
S11310B008E0094B1A68002A04D005490B685C1C37
S11310C00C60D054F0BDC046A8F4FF1F80F0FF1F91
S11310D0A4F4FF1FACF4FF1FE8F4FF1FA0F4FF1FEC
S11310E0C3F4FF1FB8F4FF1FD1F4FF1FB7F4FF1FB1
S11310F0C4F4FF1FD0F4FF1FD7F4FF1FDDF4FF1F5C
S1131100E4F4FF1F80F00F4010B50024044BE05CB2
S1131110002803D00134FFF75BFFF7E710BDC0469A
S1131120A2F0FF1F012210B509490A4C635813436A
S113113063500021084B19600531986059601A60AA
S11311407F3219681142FCD00022034B1A6010BD93
S113115038100000007004400000044010B58024E2
S11311600A4B0B49A4015A58224340245A500949B6
S11311705A5822435A50A022074BD2001A665A6684
S1131180142343706C33837010BDC0460070044058
S1131190381000003410000000D0044080200B4BB5
S11311A00B4900065A58024380205A5009498001CD
S11311B05A5802435A500022074B9A67074B5A70F9
S11311C01A700233A032DA777047C04600700440C8
S11311D03C1000003810000000D0044000F0034030
S11311E0C2B2034B0005000F1A7058707047C04616
S11311F000F0034010B50F210948FFF755FA062106
S11312000848FFF751FA07210748FFF74DFAC821AC
S11312100648FFF749FA06210548FFF745FA10BDCD
S1131220C6160000B8F4FF1FDA160000E21600002C
S1131230C4F4FF1F002310B501001A00180000F0C9
S113124025F910BD084B10B50400002B02D0002175
S113125000F078F9054B1868836A002B00D0984792
S1131260200000F0F3F9C04645150000B017000057
S1131270074B70B51D00074CE41AA410002C04D0D1
S1131280013CA300EB589847F8E700F099FA70BDC9
S1131290D8170000DC1700000E4B70B500251E00A7
S11312A00D4CE41AA410A54204D0AB00F35898479F
S11312B00135F8E700F07EFA084B00251E00084CC3
S11312C0E41AA410A54204D0AB00F35898470135A2
S11312D0F8E770BDD4170000D4170000D41700003D
S11312E0D817000010B5034B0100186800F066F829
S11312F010BDC04648F1FF1F10B5034B010018682C
S113130000F016F810BDC04648F1FF1F002310B5C9
S11313109A4203D0CC5CC4540133F9E710BD0300F6
S11313208218934202D019700133FAE77047000023
S113133030B500293ED004390B68002B00DAC918F7
S11313401D4A13681400002B02D14B60116031E078
S11313508B420DD90A688818834203D118685B68E8
S113136082180A604B60216024E08A4203D813008B
S11313705A68002AF9D11D685C198C420BD109689E
S1131380691858181960824214D1106852684118BB
S113139019605A600EE08C4202D90C23036009E004
S11313A008680C18A24203D1146852682018086017
S11313B04A60596030BDC04670F1FF1F032370B509
S11313C0CD1C9D43083506000C2D01D20C2505E0EB
S11313D0002D03DA0C230020336040E0A942F9D841
S11313E01F4B1C681A002100002913D00B685B1BDB
S11313F00DD40B2B02D90B60CC181EE08C4202D109
S1131400636813601AE04B6863600C0016E00C001C
S11314104968E9E7134C2368002B03D1300000F03E
S113142023F820602900300000F01EF8431CD1D0BE
S11314300323C41C9C43A0420AD125602000072238
S11314400B30231D9043C31A09D05A42E25006E0E0
S1131450211A300000F008F8431CEED1BAE770BD41
S113146070F1FF1F6CF1FF1F002370B5064C0500DF
S11314700800236000F0DCF8431C03D12368002B30
S113148000D02B6070BDC046ECF4FF1FF7B52A4DA9
S113149006002C68009117000193002C01D1274C01
S11314A02C6063681F2B15DD254B002B02D1012016
S11314B0404240E08C20FFF715FF041EF7D02A6855
S11314C000230260020088324360286013609E4259
S11314D029D009E0002E26D023008833186800287C
S11314E010D1174B002BE2D084204000FFF7FAFE06
S11314F00028DCD003000022FC335A609A602300E9
S113150088331860012361688B408A00821880C286
S1131510FC304168194341600199D167022E02D120
S1131520826813438360002063685A1C626002333C
S1131530009A9B001A51FEBD00F2FF1F74F1FF1FB9
S1131540E5120000F0B587B005900391354D2C6885
S1131550002C64D0230088331E6863685A1E0192ED
S1131560314A9B189B00F7180433E3180293019B3C
S1131570002B3EDB039B002B0ED0002E06D1019BDB
S1131580043F013B0193029B043BEFE73B008033A4
S11315901B68039A9A42F2D16268029B0199013A4C
S11315A05B68914201D1616002E0002202994A60C5
S11315B0002BE4D062680492002E07D00122019926
S11315C08A403100FC314868104201D1984708E054
S11315D08968114203D139680598984701E0386851
S11315E09847049B62689342B0D12B689C42C6D052
S11315F0ACE70E4B002B12D062682368002A0BD193
S1131600002B09D02B60002E02D03000FFF774FEAF
S11316102000FFF771FE9AE725001C0098E707B049
S1131620F0BDC04600F2FF1FFFFFFF3FF9120000AC
S1131630044A1368002B03D0181810601800704770
S1131640014BF9E704F2FF1FF0F4FF1FFEE7C04669
S1131650508E8A6C309A649E589068964048609286
S11316609A747C20789C708C8886A0B0B8BCBEBF6D
S1131670AFA7A3A1414231544A003134352E333946
S11316803030000D0A41542B444D4F434F4E4E45CC
S113169043540D0A0041542B444D4F534554475273
S11316A04F55503D302C3134352E333930302C31B8
S11316B034352E333930302C303030302C372C3018
S11316C03030300D0A00414231544A2054455354BD
S11316D0494E47204C61743A20002C206C6F6E3ABE
S11316E02000616161616161616161616161616188
S11316F061616161616161616161616161616161D6
S113170061616161616161616161616161616161C5
S113171061616161616161616161616161616161B5
S113172061616161616161616161616161616161A5
S11317306161616161616161616161616161616195
S11317406161616161616161616161616161616185
S11317506161616161616161616161616161616175
S11317606161616161616161616161616161616165
S11317706161616161616161616161616161616155
S11317806161616161616161616161616161616145
S11317906161616161616161616161616161616135
S11317A06161616161616161616161610043000066
S11317B0E8F0FF1FF8B5C046F8BC08BC9E46704769
S10F17C0F8B5C046F8BC08BC9E46704753
S10B17CC44ECFF7F0100000062
S10717D4C104000048
S10717D89504000070
S11317DCD101FE012B0258028202AC02D302F702A1
S11317EC18033903540369037E038D0399039F0380
S11317FCA2039F0399038D037E03690354033903E6
S113180C1803F702D302AC02820258022B02FE0127
S113181CD101A10174014A011D01F300CC00A800FF
S113182C870069004E0036002100120006000000FB
S113183C0000000006001200210036004E00690072
S113184C8700A800CC00F3001D014A017401A1011A
S113185C244750524D432C742C732C612C412C6F07
S113186C2C4F2C6B2C632C642C456D2C4D43434317
S113187C4500244750524D432C3134343134302EEE
S113188C30302C412C313233332E31313637312C2C
S113189C4E2C31323433352E37313339342C572CDA
S11318AC302E3132382C2C3331303831352C2C2C21
S11318BC412A364400000000000000000000000033
S11318CC0000000000000000000000000000000008
S11318DC0000000000000000AD1700000000000034
S11318EC00000000000000000000000000000000E8
S11318FC00000000000000000000000000000000D8
S113190C00000000000000000000000000000000C7
S113191C0000000000000000E8F0FF1F00000000C1
S903047D7B
