S01700006275696C642F6D61696E5F626F6172642E73313992
S1130000003000207D0400008D0400008D040000F9
S113001000000000000000000000000000000000DC
S11300200000000000000000000000008D0400003B
S113003000000000000000008D0400008D0400009A
S11300408D0400008D0400008D0400008D04000068
S11300508D0400008D0400008D0400008D04000058
S11300608D0400008D0400008D0400008D04000048
S1130070850B0000FD0B0000450C00008D04000002
S11300808D0400008D0400008D0400008D04000028
S11300908D0400008D040000B90900008D040000E7
S11300A08D0400008D0400008D0400008D04000008
S11300B08D0400008D0400008D0400008D040000F8
S1130400FFFFFFFFFFFFFFFFFFFFFFFFFEFFFFFFF9
S1130410144B002B00D1124B9D46402292029A1A93
S1130420924600218B460F461148124A121A01F0D7
S113043010F80D4B002B00D098470C4B002B00D02C
S113044098470020002104000D000B4800F08CFFA9
S113045000F0BCFF2000290000F0A2FC00F08CFF9B
S11304600000080000300020000000000000000030
S113047050F1FF1FF0F4FF1FA513000072B600F047
S11304803BF800F04BF862B6FFF7C2FF00480047A4
S11304908D040000074B10B51A781C00002A07D100
S11304A0054B002B02D0054800E000BF0123237058
S11304B010BDC04650F1FF1F000000007818000076
S11304C0084B10B5002B03D00749084800E000BFD3
S11304D007480368002B03D0064B002B00D0984735
S11304E010BDC0460000000054F1FF1F7818000042
S11304F04CF1FF1F000000000821064B9A780A42C5
S113050002D09A780A439A7088230021024A5B0138
S1130510D150704700D0074000700440154B164876
S113052010B5191E81420CD00023144A920892007F
S11305309A4203D0C458CC500433F9E7104B996065
S113054001E00F4A936000230E4A0F490F48891AAD
S11305508B4203D0D45CC4540133F9E70023180060
S11305600B4A0C49891A994203D0D41820700133DC
S1130570F9E710BD000000000000000000000000CA
S113058000ED00E0A0180000F019000000F0FF1FCB
S113059050F1FF1FF0F4FF1FC26D836D9A4211DA10
S11305A00368C31819720268836D013B9A4201D132
S11305B0002301E0036801330360C36D0133C365A5
S11305C0002001E0012040427047C26D0300022078
S11305D0002A10D05A689A18107A59689A6DC0B2D5
S11305E0013A914201D1002201E05A6801325A6075
S11305F0DA6D013ADA6570475023836500231900E8
S113060043600360C365C218013311724F2BFAD1E2
S11306105020704710B50B4B1B78002B11D00A4C9F
S113062023685A1C2260094A5B00985A00F04CFE69
S113063023683F2B01DD00232360054B1A68054B1B
S11306405A6010BD11F2FF1F0CF2FF1F00F0FF1FD4
S113065014F2FF1FFC70034010B5034B03481968E4
S113066000F052F910BDC04614F2FF1F1506000039
S113067010B50249024800F06DF910BD204E00008B
S11306805907000010B500F08BF900F08FF9034909
S1130690034A044B885803408B5010BD007004403B
S11306A03C100000FFFF7FFF1A4B70B519601A4B16
S11306B0072118600023194A194C1360194A1A4E6D
S11306C011701A4A1A4D1370012277313280297041
S11306D02270184A13700322174B1A70174BA73253
S11306E01A6000F0CFFDFFF7B7FF642000F08EFD25
S11306F0FFF7BEFF23001A78002AFCD13288120AC1
S11307002A7001221A701A78002AFCD1FFF7BAFF66
S113071070BDC04624F2FF1F1CF2FF1F0CF2FF1F26
S113072011F2FF1F09F2FF1F0AF2FF1F18F2FF1F49
S113073010F2FF1F08F2FF1F20F2FF1F14F2FF1F29
S11307409B22044B52001968914200D18C3A1A60E2
S11307507047C04614F2FF1FF7B5294B1A7801936E
S1130760002A4BD08023274C274D2278297852B277
S113077013411A004BB2134014D0244B1B78002BA6
S113078014D0234B1F78FFB2002F0FD1214E3378A2
S11307900133DBB233703378052B07D9FFF7D0FF71
S11307A0377003E01B4A1370FFF7CAFF23785BB26C
S11307B0002B1FDC16490A78D2B2002A14D1012179
S11307C01548164E0368013B0360104B19703168DD
S11307D00B780131DBB2DBB22B7003683160002B84
S11307E006DC019B1A7003E00B78013BDBB20B7053
S11307F0072302E02378013BDBB22370F7BDC04638
S113080011F2FF1F09F2FF1F10F2FF1F18F2FF1F62
S113081020F2FF1F08F2FF1F24F2FF1F1CF2FF1F2C
S113082010B5074C23685A1C2260064A5B00985A8C
S113083000F04AFD2368402B01DD0023236010BD36
S113084028F2FF1F00F0FF1F002370B5094C0500BC
S113085009490A48236000F057F86420002D01D1AB
S11308609620400000F0D2FC00F09AF800232360A8
S113087070BDC04628F2FF1F71020000210800006D
S1130880F0B580261D4C85B0760000900391A660DB
S113089000F0F8FC009D0196009B039A9B189D4272
S11308A029D22B781A00413AD1B2192901D8144B14
S11308B005E0303BDAB20027092A01D8114AD75C97
S11308C003267B0903330293029B9E420DD08020B2
S11308D03041019B38406360FFF7B6FF019B642001
S11308E0A36000F093FC0136EEE79620400001354A
S11308F000F08CFCD0E705B0F0BDC04680F00F409E
S1130900A0170000BA17000010B580240C4B0D4A44
S113091018600D48240483582343835000220B4B52
S11309201A60FC335960012102321961DA60DA6815
S11309300A43DA608022064BD2031A6062B610BD05
S11309402CF2FF1F3C1000000070044000700340B4
S113095000E100E010B580240C4B0D4A58600D48AE
S1130960240483582343835000220B4B1A60FC3326
S11309705961012102321962DA61DA690A43DA61E2
S11309808022064BD2031A6062B610BD2CF2FF1F00
S11309903C100000007004400070034000E100E0DF
S11309A00022014BDA607047FC7003400022014BC7
S11309B0DA617047FC70034010B572B6094C2369C4
S11309C0002B04D001232361074B1B689847236A3B
S11309D0002B05D00122034B1A62034B5B68984736
S11309E062B610BDFC7003402CF2FF1F84B0039369
S11309F00023029217930093019304B07047000000
S1130A002E4B10B5041E9C4223D180202C4B2D4923
S1130A10C0005A5802435A502B4A2C499858014056
S1130A20995099582A4801438020995029498000B7
S1130A305A5802435A502848284A294B5A609A6007
S1130A400300C0331C60FFF7D7FD2648FFF7D4FD31
S1130A502CE0254B984213D18020194B194A0001F0
S1130A609958014399501B495A5802435A50C0227D
S1130A701E4B9200DA601E4BC0331C60242316E028
S1130A801C4B984219D180200D4B0E4A40019958B5
S1130A90014399500F495A5802435A50C022164BE9
S1130AA092009A60DA60154BC0331C602C23E3700B
S1130AB0002323709C33637062B610BD00A006400F
S1130AC0007004403410000004100000FFFFFEF327
S1130AD0000001043810000034F2FF1F000200017E
S1130AE00090044094F2FF1F00B0064000B00440A0
S1130AF0F8F2FF1F00C0064000C00440BCF3FF1F13
S1130B008022024B92011A607047C04600E100E067
S1130B108022024B9201DA677047C04604E100E08C
S1130B2084B002927F22039331AB01911978309BF8
S1130B300090D8780240DA701A7952B2002AFBDAAF
S1130B40D97104B0704784B010B5AEB0619C3090D8
S1130B5031913292339323780134002B0CD034A991
S1130B60B42268462D9300F06BFC30983199329A88
S1130B70339BFFF7D5FFEEE72EB010BC08BC04B0E2
S1130B8018470000802370B5184D5B006B6072B687
S1130B90174C23795BB2002B0FDA80239B006B6028
S1130BA01448FFF712FD144BE071BC331B68002B93
S1130BB003DC7F23E2781340E37080212279C900AB
S1130BC00B4B696092060ED52A20D9791A79C9B2DD
S1130BD002431A718022054B12015A60002902D087
S1130BE00548FFF7D9FC62B670BDC04680F00F40DF
S1130BF000A0064094F2FF1F34F2FF1F70B572B6D6
S1130C000D4C2579EDB26BB2002B0CDA0B48FFF7D3
S1130C10DCFC0B4BE071BC331B68012B03DC7F2332
S1130C20E2781340E370AB0603D5E079C0B200F07C
S1130C301BFA62B670BDC04600B0064058F3FF1FF1
S1130C40F8F2FF1F70B572B60D4C2579EDB26BB298
S1130C50002B0CDA0B48FFF7B8FC0B4BE071BC33EC
S1130C601B68022B03DC7F23E2781340E370AB069E
S1130C7004D5E1790448C9B2FFF78EFC62B670BDB1
S1130C8000C006401CF4FF1FBCF3FF1F0023A0217B
S1130C901B4A30B513601B4B022019701A4B8C3958
S1130CA0597086311970110004009A799443221EF8
S1130CB0FAD1103298791042FCD10A24250098798F
S1130CC0114A8543281EF9D1033010713D3050710B
S1130CD0203804009A799443FBD1402004009A7987
S1130CE09443FBD11020084A1070043804009A7908
S1130CF09443FBD18022054B5202CA5030BDC046FA
S1130D0000700440005006400040064044100000BB
S1130D10F8B58823002280271B4C5B01E250FFF7C3
S1130D20B5FF8021194A3F01A35889013B43A350D1
S1130D30A35880200B43A350A02315495B000B62EA
S1130D40144B40005D6905435D6180255E69AD001B
S1130D502E435E61A5583D43A550F0245A692401F1
S1130D6022435A61086248628862C86200F06EF9E0
S1130D7000F03EFA962108488901FFF741FE074832
S1130D8000F060FAF8BDC04600700440381000005E
S1130D9000B0044080F00F4000B006400060064000
S1130DA010B5FFF7B5FF00F07FF800F041F980239C
S1130DB02F4C9B00636000F0CBF800F005F9802312
S1130DC0DB0063602B4800F021FA80231B01636081
S1130DD000F020F9FA20400000F018FA264C052112
S1130DE02000FFF74DFD642000F010FA0321234892
S1130DF0FFF746FDC82000F009FA0A212048FFF752
S1130E003FFDFA20800000F001FA03211D48FFF79E
S1130E1037FDC82000F0FAF90B211B48FFF730FD1D
S1130E20C82000F0F3F900F063FAC82000F0EEF9EE
S1130E3000F0FEF800F0AEF9144800F0E7F900F015
S1130E40E9F8FA20400000F0E1F905212000FFF75D
S1130E5017FD642000F0DAF900F04AFAC82000F027
S1130E60D5F900F0E5F80A4800F0D0F9B0E7C0463B
S1130E7080F00F4010270000C4170000CA170000BC
S1130E80B8F4FF1FCE170000C4F4FF1F409C0000FD
S1130E9050C300000023CA5CC25401335A1E8A5C4A
S1130EA0002AF8D11800704770B51C4C1C4821006A
S1130EB0FFF7F0FF21001B48FFF7ECFF96211A48CB
S1130EC08901FFF79DFD98201849194A80018B5824
S1130ED0184C03438B506369174A08251343636115
S1130EE08023164A5B00D360D364154A64201365DB
S1130EF0144A154B51690B4080215361134B49032C
S1130F005A690A435A6180221203A2605960A5609B
S1130F1000F07CF96560002070BDC046D217000067
S1130F2080F4FF1F8BF4FF1F00A0064000700440F4
S1130F303810000040F00F400800080000A00440F2
S1130F4000D0044000F00F40FFEFFFFF00F10F401E
S1130F50F0B580270525AFB0FF00013D002D27D057
S1130F600A2000F053F9144CB42226001036310044
S1130F70684600F065FA20686168A268E368FFF7D4
S1130F8035FD0E4BB422310068462D9300F058FA1B
S1130F9020686168A268E368FFF7D5FDFA20800045
S1130FA000F034F90122064B5F60064B5A77D4E710
S1130FB001202FB0F0BDC04634F2FF1FDB17000044
S1130FC080F00F4080F4FF1F30B50F4BAFB05B7F54
S1130FD00120002B16D00D4C0D4B2100B4221031F2
S1130FE068462D9300F02CFA20686168A268E368D3
S1130FF0FFF7A9FD0135642000F008F96B1E032BEF
S1131000E9DD00202FB030BD80F4FF1F34F2FF1F54
S1131010ED1700008022044B52039A608022034B98
S113102012015A607047C04600F10F4080F00F4033
S11310308022044B52035A608022034B12019A60AF
S11310407047C04600F10F4080F00F400020034B72
S11310501860034B1860034B18607047A8F4FF1F17
S1131060A4F4FF1FE8F4FF1FF0B53B4A1368140013
S1131070062B19DC3949C95C814203D00023384A64
S1131080236002E0062B02D00133136062E02C29B6
S113109057D1072313600023314A32491360324A7F
S11310A01160324A137055E02C284AD12B4A591C3E
S11310B0515C15002C29E1D1023323602B4B284AC3
S11310C019782948002903D0002106681768F155CA
S11310D0002111602268AA5C632A24D00CD8452A16
S11310E027D003D8412A28D1214A19E04F2A16D003
S11310F0612A22D11F4A19E06F2A0ED005D8642A2A
S113110013D06B2A19D11C4A10E0732A03D0742A15
S113111013D1144A0AE0194A02E0194A06E0194AAE
S11311200260197016E0184A00E0184A02600122B1
S113113005E021600121164A1160002202601A7044
S113114008E0094B1A68002A04D005490B685C1CA6
S11311500C60D054F0BDC046A8F4FF1F80F0FF1F00
S1131160A4F4FF1FACF4FF1FE8F4FF1FA0F4FF1F5B
S1131170C3F4FF1FB8F4FF1FD1F4FF1FB7F4FF1F20
S1131180C4F4FF1FD0F4FF1FD7F4FF1FDDF4FF1FCB
S1131190E4F4FF1FF8B580230026124CDB00124F45
S11311A0A3603E60FFF7ACFCFA20C00000F02EF80C
S11311B03B680E495A425341DBB20135681EC20FE7
S11311C081427241D2B2002A01D0002BF5D1074BE3
S11311D001209D4205DCFFF79BFC80230020DB00FF
S11311E06360F8BD80F00F40E4F4FF1F3F420F003E
S11311F010B50024044BE05C002803D00134FFF751
S113120033FFF7E710BDC046A2F0FF1F012210B55F
S113121009490A4C6358134363500021084B196071
S11312200531986059601A607F3219681142FCD008
S11312300022034B1A6010BD3810000000700440F7
S11312400000044010B580240A4B0B49A4015A58ED
S1131250224340245A5009495A5822435A50A02242
S1131260074BD2001A665A66142343706C3383709A
S113127010BDC04600700440381000003410000057
S113128000D0044080200B4B0B4900065A580243FF
S113129080205A50094980015A5802435A5000226A
S11312A0074B9A67074B5A701A700233A032DA77E9
S11312B07047C046007004403C1000003810000025
S11312C000D0044000F00340C2B2034B0005000FFD
S11312D01A7058707047C04600F003400023CA5C7F
S11312E0C25401335A1E8A5C002AF8D11800704790
S11312F070B59AB001AE17493000FFF7EFFF451EF5
S113130070191549FFF7EAFF682301382D183018C2
S1131310037012490130FFF7E1FF4E22431EF0181B
S11313200270EC180E4901301C19FFF7D7FF572340
S113133001382118335403313000FFF7B5F99620F2
S11313404000FFF763FF3D210648FFF7ADF91AB0EF
S113135070BDC0461E180000ACF4FF1FB8F4FF1F98
S1131360C4F4FF1F38180000002310B501001A0050
S1131370180000F025F910BD084B10B50400002B2F
S113138002D0002100F086F9054B1868836A002B0F
S113139000D09847200000F001FAC04695160000DE
S11313A074180000074B70B51D00074CE41AA41014
S11313B0002C04D0013CA300EB589847F8E700F058
S11313C061FA70BD9C180000A01800000E4B70B5A7
S11313D000251E000D4CE41AA410A54204D0AB0055
S11313E0F35898470135F8E700F046FA084B002512
S11313F01E00084CE41AA410A54204D0AB00F35814
S113140098470135F8E770BD981800009818000057
S1131410981800009C18000010B5034B01001868D0
S113142000F066F810BDC04648F1FF1F10B5034B2D
S11314300100186800F016F810BDC04648F1FF1FFF
S1131440002310B59A4203D0CC5CC4540133F9E7AD
S113145010BD03008218934202D019700133FAE7D9
S11314607047000030B500293ED004390B68002BCA
S113147000DAC9181D4A13681400002B02D14B600E
S1131480116031E08B420DD90A688818834203D178
S113149018685B6882180A604B60216024E08A4205
S11314A003D813005A68002AF9D11D685C198C42CC
S11314B00BD10968691858181960824214D1106850
S11314C05268411819605A600EE08C4202D90C230C
S11314D0036009E008680C18A24203D1146852683A
S11314E0201808604A60596030BDC04670F1FF1F83
S11314F0032370B5CD1C9D43083506000C2D01D285
S11315000C2505E0002D03DA0C230020336040E0B5
S1131510A942F9D81F4B1C681A002100002913D0D6
S11315200B685B1B0DD40B2B02D90B60CC181EE08F
S11315308C4202D1636813601AE04B6863600C004C
S113154016E00C004968E9E7134C2368002B03D12B
S1131550300000F023F820602900300000F01EF86D
S1131560431CD1D00323C41C9C43A0420AD1256050
S1131570200007220B30231D9043C31A09D05A427E
S1131580E25006E0211A300000F008F8431CEED1C6
S1131590BAE770BD70F1FF1F6CF1FF1F002370B537
S11315A0064C05000800236000F0EAF8431C03D150
S11315B02368002B00D02B6070BDC046ECF4FF1FE5
S11315C0F0B5304D85B02C680600019117000293E8
S11315D0002C0AD12C4B2D4A2B601C00002A04D06D
S11315E019001268883103920A6063681F2B15DDA5
S11315F0274B002B02D10120404240E08C20FFF712
S11316000BFF041EF7D02A68002302600200883210
S11316104360286013609E4229D009E0002E26D042
S1131620230088331868002810D1194B002BE2D00E
S113163084204000FFF7F0FE0028DCD003000022E5
S1131640FC335A609A602300883318600123616870
S11316508B408A00821880C2FC3041681943416083
S11316600299D167022E02D182681343836000205D
S113167063685A1C62600233019A9B001A5105B0D8
S1131680F0BDC04600F2FF1F74F1FF1F0000000010
S113169019140000F0B587B005900391354D2C68FE
S11316A0002C64D0230088331E6863685A1E01929C
S11316B0314A9B189B00F7180433E3180293019BEB
S11316C0002B3EDB039B002B0ED0002E06D1019B8A
S11316D0043F013B0193029B043BEFE73B00803353
S11316E01B68039A9A42F2D16268029B0199013AFB
S11316F05B68914201D1616002E0002202994A6074
S1131700002BE4D062680492002E07D001220199D4
S11317108A403100FC314868104201D1984708E002
S11317208968114203D139680598984701E03868FF
S11317309847049B62689342B0D12B689C42C6D000
S1131740ACE70E4B002B12D062682368002A0BD141
S1131750002B09D02B60002E02D03000FFF766FE6C
S11317602000FFF763FE9AE725001C0098E707B006
S1131770F0BDC04600F2FF1FFFFFFF3F2D14000025
S1131780044A1368002B03D018181060180070471F
S1131790014BF9E704F2FF1FF0F4FF1FFEE7C04618
S11317A0508E8A6C309A649E589068964048609235
S11317B09A747C20789C708C8886A0B0B8BCBEBF1C
S11317C0AFA7A3A1414231544A004C4154004C4FAD
S11317D04E003134352E33393030000D0A41542B4C
S11317E0444D4F434F4E4E4543540D0A0041542B34
S11317F0444D4F53455447524F55503D302C31348E
S1131800352E353030302C3134352E353030302CC7
S1131810303030302C372C303030300D0A0041421B
S113182031544A2D313E415052532C57494445318D
S11318302D312C032CF02C00414231544A2D313EE1
S1131840415052532C57494445312D3103F02C5407
S1131850455354494E472054455354494E47205408
S1131860455354494E472054455354494E47004329
S113187000000000E8F0FF1FF8B5C046F8BC08BC43
S11318809E467047F8B5C046F8BC08BC9E467047F3
S10B189080EBFF7F0100000062
S1071898C104000083
S107189C95040000AB
S11318A0D101FE012B0258028202AC02D302F702DC
S11318B018033903540369037E038D0399039F03BB
S11318C0A2039F0399038D037E0369035403390321
S11318D01803F702D302AC02820258022B02FE0163
S11318E0D101A10174014A011D01F300CC00A8003B
S11318F0870069004E003600210012000600000037
S11319000000000006001200210036004E006900AD
S11319108700A800CC00F3001D014A017401A10155
S1131920244750524D432C742C732C612C412C6F42
S11319302C4F2C6B2C632C642C456D2C4D43434352
S11319404500244750524D432C3134343134302E29
S113195030302C412C313233332E31313637312C67
S11319604E2C31323433352E37313339342C572C15
S1131970302E3132382C2C3331303831352C2C2C5C
S1131980412A36440000000000000000000000006E
S11319900000000000000000000000000000000043
S11319A000000000000000006F18000000000000AC
S11319B00000000000000000000000000000000023
S11319C00000000000000000000000000000000013
S11319D00000000000000000000000000000000003
S11319E00000000000000000E8F0FF1F00000000FD
S903047D7B
