:1000000010C022C021C020C01FC01EC055C01CC0CF
:100010001BC01AC019C018C017C016C015C014C024
:1000200013C011241FBECFE5D2E0DEBFCDBF10E06C
:10003000A0E6B0E0E6EFF1E002C005900D92AA382C
:10004000B107D9F7C2D0D5C0DBCF0098379817B821
:1000500080E183B986E886B908953699FECFF5DF49
:10006000369A3699FECF85B124B1229526952695EC
:10007000237090E0880F991F880F991F822B089595
:10008000009837988DE587B980E183B986E886B90D
:1000900008953699FECFF4DF369A3699FECF85B1B2
:1000A00024B1229526952695237090E0880F991FFC
:1000B000880F991F822B08951F920F920FB60F92EF
:1000C00011248F939F9398B384E0892788BB9F91D5
:1000D0008F910F900FBE0F901F901895DF9A81118E
:1000E00008C02FE58AEE90E0215080409040E1F773
:1000F00004C087EA91E60197F1F700C00000DF989D
:100100000895AF92BF92CF92DF92EF92FF920F933A
:100110001F93CF93DF937C01EC01C60FD71F00E83C
:1001200010E0EC16FD06E8F5D701ED917D018FEBAF
:100130008E0F8A3120F4F0E0E75DFF4F07C080EDBD
:100140008E0F8A3028F4F0E0E05DFF4FD08001C0D0
:10015000D12CCD2CC294C69487E0C82293E0A92E5E
:10016000B12CCC20A1F0C8010A2C02C0959587952E
:100170000A94E2F78D21B2DF87EA91E60197F1F761
:1001800000C00000CA949FEFA91AB90AEACFAFE5F0
:10019000BAEE20E0A150B0402040E1F700C00000DE
:1001A000C0CF8FE59AEEA0E081509040A040E1F7EB
:1001B00000C00000DF91CF911F910F91FF90EF9051
:1001C000DF90CF90BF90AF90089587B3856087BBD5
:1001D000D79AC09865E070E084E890E092DF8EB531
:1001E0008B608EBD8CE990E09BBD8ABD619A78944E
:0601F000FFCFF894FFCFE1
:1001F600A0B0B8BCBEBFAFA7A3A1508E8A6C309A80
:10020600649E58906896404860929A747C20789CC8
:0A021600708C8886414231544A0082
:00000001FF
