:1000000010C02AC029C028C027C026C09EC024C056
:1000100023C022C021C020C01FC01EC01DC046C1B9
:1000200095C111241FBECFE5D2E0DEBFCDBF10E0E9
:10003000A0E6B0E0E6E5F6E002C005900D92AA3831
:10004000B107D9F710E0AAE8B0E001C01D92A13FC6
:10005000B107E1F7D8D2FDC2D3CFF9015093E40044
:100060004093E3003093EE002093ED009093E60080
:100070008093E5007093E2006093E100DB018C91D6
:100080008330D9F0843019F1823089F59091E900FC
:1000900021E0290F2093E9009083E091ED00F09199
:1000A000EE009091EA0021E0290F2093EA0091836D
:1000B000E091E300F091E40019C08091EB008083AF
:1000C000E091ED00F091EE008091EC0009C080918C
:1000D000E7008083E091ED00F091EE008091E80070
:1000E0008183E091E300F091E40082E08083089551
:1000F0000098379817B880E183B986E886B90895E3
:100100003699FECFF5DF369A3699FECF8091E90019
:10011000811104C098B384E0892788BB08950098B2
:1001200037988DE087B980E183B986E886B908956C
:100130003699FECFF4DF369A3699FECF85B180939B
:10014000EB0084B18093EC0008951F920F920FB6DC
:100150000F9211242F933F934F935F936F937F934D
:100160008F939F93AF93BF93EF93FF938BB380587D
:100170008BBBDEDFC5DFFF91EF91BF91AF919F9108
:100180008F917F916F915F914F913F912F910F9040
:100190000FBE0F901F901895DF9A811108C02FE5B0
:1001A0008AEE90E0215080409040E1F704C087EA59
:1001B00091E60197F1F700C00000DF980895AF9233
:1001C000BF92CF92DF92EF92FF920F931F93CF9344
:1001D000DF937C01EC01C60FD71F00E810E0EC169E
:1001E000FD06E8F5D701ED917D018FEB8E0F8A3189
:1001F00020F4F0E0E75DFF4F07C080ED8E0F8A30FE
:1002000028F4F0E0E05DFF4FD08001C0D12CCD2C70
:10021000C294C69487E0C82293E0A92EB12CCC20CA
:10022000A1F0C8010A2C02C0959587950A94E2F7BF
:100230008D21B2DF87EA91E60197F1F700C0000057
:10024000CA949FEFA91AB90AEACFAFE5BAEE20E047
:10025000A150B0402040E1F700C00000C0CF8FE5C2
:100260009AEEA0E081509040A040E1F700C000006D
:10027000DF91CF911F910F91FF90EF90DF90CF9082
:10028000BF90AF900895D6980895D69A0895FBDF51
:10029000DE98D498DC98F9DFDE9AF5DFDE9AD49AFE
:1002A000DC9A80ED8EB988EA8DB908951F920F927D
:1002B0000FB60F9211242F933F934F935F936F9339
:1002C0007F938F939F93AF93BF93EF93FF93DBDF66
:1002D000CE9913C0CC9B11C0CE9BFACFD8DF8091B2
:1002E0009600882311F180919000909191000196E1
:1002F000909391008093900018C08091960088237D
:1003000049F080919400909195000196909395000A
:10031000809394001092DC0081E08093DB008FEFEB
:100320008FB988EF8DB980ED8EB9FF91EF91BF91B4
:10033000AF919F918F917F916F915F914F913F917D
:100340002F910F900FBE0F901F9018951F920F9234
:100350000FB60F9211242F933F934F935F936F9398
:100360007F938F939F93AF93BF93EF93FF939FB12F
:1003700080919600882351F020918E0030918F005B
:100380002F5F3F4F30938F0020938E008091DC00D1
:10039000823009F447C028F4882371F0813049F491
:1003A00028C0843009F44AC008F442C0853009F4FA
:1003B0004CC08093DC001BC01092DC002091DA005E
:1003C000892F869582130BC082E08093DB0090FF1B
:1003D00002C081E001C084E08093DC0045C01FB80A
:1003E00080ED8EB988EA8DB983E08093DB0080E0F0
:1003F0003EC084E08093DB0082E08093DC00E091EB
:10040000970080919800E81750F481E08E0F809358
:100410009700F0E0E756FF4F80818FB901C01FB809
:1004200034DFE5CF83E08093DC001FB82CDF1EC0F3
:100430009923F9F21092DC002ADFD9CF8093DB00F8
:1004400085E08093DC001FDFD2CF84E08093DC0066
:10045000E091B900EF3140F481E08E0F8093B90054
:10046000F0E0E654FF4F90831FB80FDF8EE0806509
:100470008EB9FF91EF91BF91AF919F918F917F9135
:100480006F915F914F913F912F910F900FBE0F9001
:100490001F901895C62F8093DA005093DE0040938A
:1004A000DD003093E0002093DF001092B90010923D
:1004B0009800109297001092DB00662319F085B720
:1004C000877E85BFE4DE7894E091DF00F091E00064
:1004D000309771F0099580919600882349F08091BA
:1004E0008A0090918B00019690938B0080938A00F4
:1004F000CC2359F08091DB00811107C085B7806261
:1005000085BF889585B78F7D85BF759BDDCFF894B6
:1005100080919600882349F08091920090919300F9
:1005200001969093930080939200759A8091DB00DE
:10053000813019F0843019F010C0A9DE0EC080910E
:100540009600882361F080918C0090918D00019637
:1005500090938D0080938C0002C080E001C081E008
:100560001092DB007894882309F4AECF10929800A3
:1005700010929700E091DD00F091DE0029E930E073
:1005800048E950E06AEB70E089EB90E00995109241
:10059000B9009ACF80939600109295001092940023
:1005A000109293001092920010929100109290007D
:1005B00010928F0010928E0010928D0010928C007D
:1005C00010928B0010928A0008958091940090916F
:1005D00095000895809192009091930008958091E4
:1005E000900090919100089580918E0090918F00DD
:1005F000089580918C0090918D00089580918A00DB
:1006000090918B00089587B3856087BBD79A90DD62
:1006100077DD65E070E084E890E0D1DD8EB58B6039
:100620008EBD88E893E19BBD8ABD619A789420E0F5
:1006300030E04DE250E061E088E62CDF65E070E0FC
:1006400084E890E0BCDDE091E500F091E600808177
:06065000FECFF894FFCF7D
:10065600A0B0B8BCBEBFAFA7A3A1508E8A6C309A1B
:10066600649E58906896404860929A747C20789C64
:0A067600708C8886414231544A001E
:00000001FF
