S02000006275696C642F6770696F5F64656D6F5F6672646D6B6C30337A2E73313926
S1130410074B10B51A781C00002A07D1054B002B96
S113042002D0054800E000BF0123237010BDC04680
S113043004FEFF1F0000000074040000084B10B508
S1130440002B03D00749084800E000BF07480368B1
S1130450002B03D0064B002B00D0984710BDC0469C
S11304600000000008FEFF1F7404000000FEFF1FD0
S113047000000000F8B5C046F8BC08BC9E467047B2
S10F0480F8B5C046F8BC08BC9E467047A6
S107048C3D04000027
S1070490110400004F
S10704940000000060
S9030410E8
