S02000006275696C642F6770696F5F64656D6F5F6672646D6B6C30337A2E73313926
S1130000000600207D04000089040000890400002B
S113001000000000000000000000000000000000DC
S1130020000000000000000000000000890400003F
S113003000000000000000008904000089040000A2
S11300408904000089040000890400008904000078
S11300508904000089040000890400008904000068
S1130060E5050000890400008904000089040000FB
S1130070890400008904000089040000AD06000022
S11300808904000089040000890400008904000038
S11300908904000089040000890400008904000028
S11300A08904000089040000890400008904000018
S11300B08904000089040000890400008904000008
S1130400FFFFFFFFFFFFFFFFFFFFFFFFFE3DFFFFBB
S1130410144B002B00D1124B9D46402292029A1A93
S1130420924600218B460F461148124A121A00F0D8
S1130430C9F90D4B002B00D098470C4B002B00D072
S113044098470020002104000D000B4800F062F9D9
S113045000F092F92000290000F0A8F800F062F9F9
S1130460000008000006002000000000000000005A
S113047064FEFF1F9CFFFF1F5107000072B600F0CF
S113048039F862B6FFF7C4FF00480047890400004A
S1130490074B10B51A781C00002A07D1054B002B16
S11304A002D0054800E000BF0123237010BDC04600
S11304B064FEFF1F000000008C090000084B10B50B
S11304C0002B03D00749084800E000BF0748036831
S11304D0002B03D0064B002B00D0984710BDC0461C
S11304E00000000068FEFF1F8C09000060FEFF1F73
S11304F000000000082110B5164B9A780A4202D079
S11305009A780A439A70882200212220124B5201C1
S11305109950124A10708020114A4002985018686D
S1130520104A024010481A601C58104A2240C02445
S1130530A40422431A5080220D4B19721A767F3A72
S113054019705A700B4A11700C2299791142FCD11E
S113055010BDC04600D007400070044000E00740D2
S113056044100000FFFFF3FF04100000FFFFFFF042
S113057000400640005006408021084B084AC9004C
S1130580D150A022074B52009A61DA61064B013A1E
S1130590FF3A5A6140325A617047C0463810000031
S11305A00070044000A0044040F00F4010B5FFF775
S11305B0E3FF40228021044B5A605960034901390A
S11305C00029FCD1DA60F9E740F00F4040420F0007
S11305D00023024A1360024A1370704710FFFF1F82
S11305E022FFFF1F402210B5294BD9781C000A4076
S11305F01DD0DA781021520711D59B780B43A370D4
S11306002379682B01D1FFF7E3FF0022214B1A6005
S11306101A68511C1960204B9B5CDBB21EE09A786F
S11306208A439A701B791D4ADBB213602FE09978D4
S1130630C9061DD5D978C90706D599789A701B794A
S1130640174ADBB2137022E0124A11681D2904DC38
S1130650144910680968884202DB0023237116E0FC
S11306601168481C10600C4A525CD2B21A710EE038
S11306700A4B1A681B2A03DD0821A2780A43A270D8
S11306801A68511C196023790749DBB28B5410BDD9
S11306900060064014FFFF1F22FFFF1F60FFFF1FC3
S11306A040FFFF1F10FFFF1F41FFFF1F70B572B611
S11306B00123134C134D2360134B144A186819007B
S11306C0082802DC1868002805DA00230B600B6890
S11306D0EB5C136013E019680D4E481C1860106938
S11306E0490080B288531968695C116062B6196860
S11306F0082904D1002119601F231360216070BDF3
S113070084FFFF1F7C09000098FFFF1F00B0034017
S113071088FFFF1F002310B501001A00180000F025
S113072059F810BD084B10B50400002B02D000216D
S113073000F0ACF8054B1868836A002B00D098478A
S1130740200000F019F9C0468D0800008809000057
S1130750074B70B51D00074CE41AA410002C04D0FC
S1130760013CA300EB589847F8E700F015F970BD79
S1130770B0090000B40900000E4B70B500251E003E
S11307800D4CE41AA410A54204D0AB00F3589847CA
S11307900135F8E700F0FAF8084B00251E00084C74
S11307A0E41AA410A54204D0AB00F35898470135CD
S11307B0F8E770BDAC090000AC090000AC0900000A
S11307C0B009000003008218934202D0197001336B
S11307D0FAE77047F7B52A4D06002C680091170018
S11307E00193002C01D1274C2C6063681F2B15DD6D
S11307F0254B002B02D10120404240E08C2000E038
S113080000BF041EF7D02A68002302600200883269
S11308104360286013609E4229D009E0002E26D050
S1130820230088331868002810D1174B002BE2D01E
S11308308420400000E000BF0028DCD00300002238
S1130840FC335A609A60230088331860012361687E
S11308508B408A00821880C2FC3041681943416091
S11308600199D167022E02D182681343836000206C
S113087063685A1C62600233009A9B001A51FEBDE1
S11308800CFFFF1F80FEFF1F00000000F0B587B0C3
S113089005900391354D2C68002C64D023008833D7
S11308A01E6863685A1E0192314A9B189B00F71810
S11308B00433E3180293019B002B3EDB039B002BC4
S11308C00ED0002E06D1019B043F013B0193029BF5
S11308D0043BEFE73B0080331B68039A9A42F2D152
S11308E06268029B0199013A5B68914201D161609F
S11308F002E0002202994A60002BE4D0626804926C
S1130900002E07D0012201998A403100FC31486849
S1130910104201D1984708E08968114203D139682F
S11309200598984701E038689847049B62689342A9
S1130930B0D12B689C42C6D0ACE70E4B002B12D032
S113094062682368002A0BD1002B09D02B60002E8B
S113095002D0300000E000BF200000E000BF9AE7B2
S113096025001C0098E707B0F0BDC0460CFFFF1F30
S1130970FFFFFF3F00000000FEE7C0464342404F38
S11309804148495A4300000000FEFF1FF8B5C04625
S1130990F8BC08BC9E467047F8B5C046F8BC08BC15
S10709A09E467047B4
S10B09A46CFAFF7F0100000062
S10709ACBD04000082
S10709B091040000AA
S11309B4000000000000000000000000000000002F
S11309C4000000000000000000000000000000001F
S11309D48409000000000000000000000000000082
S11309E400000000000000000000000000000000FF
S11309F400000000000000000000000000000000EF
S1130A0400000000000000000000000000000000DE
S1070A1400000000DA
S903047D7B
